:020000040800F2
:100000000000022081770008B5270008BD270008FE
:10001000C5270008CD270008D527000800000000EC
:10002000000000000000000000000000DD270008C4
:10003000EB27000800000000F92700080728000847
:10004000D1770008D1770008D1770008D177000870
:10005000D1770008D177000813280008D17700086D
:10006000D1770008212800082F280008D177000840
:100070003D280008D1770008D1770008D177000823
:10008000D1770008D1770008D1770008D177000830
:10009000D1770008D1770008D177000851280008EF
:1000A00075280008892800089D280008B128000844
:1000B000D1770008C5280008D1770008D17700085B
:1000C000D1770008D1770008D1770008D1770008F0
:1000D000D1770008D1770008ED2800080129000831
:1000E00015290008D1770008D1770008D1770008DA
:1000F000D1770008D1770008D1770008D1770008C0
:10010000D1770008D1770008D1770008D1770008AF
:10011000D1770008D1770008D9280008D1770008E6
:10012000D1770008D1770008D1770008D17700088F
:10013000D1770008D1770008D1770008D17700087F
:10014000D1770008D1770008D17700083529000859
:10015000D1770008D1770008D1770008D17700085F
:10016000D1770008D1770008D1770008D17700084F
:10017000D1770008D1770008D1770008000000008F
:08018000D1770008D1770008D7
:1001900010B5054C237833B9044B13B10448AFF3C1
:1001A00000800123237010BDE00200200000000049
:1001B0003080010808B5034B1BB103490348AFF376
:1001C000008008BD00000000E4020020308001082B
:1001D00001F0FF01102A2BDB10F0070F08D010F8F8
:1001E000013B013A8B422DD010F0070F42B3F6D1FC
:1001F000F0B441EA012141EA014122F007047FF015
:1002000000070023F0E80256083C85EA010586EA6B
:10021000010685FA47F5A3FA87F586FA47F6A5FAA7
:1002200087F68EB9EED1F0BC01F0FF0102F00702B3
:1002300032B110F8013B013A83EA010313B1F8D15E
:100240000020704701387047002D06BF354603383F
:10025000073815F0010F07D1013015F4807F02BF78
:10026000013015F4C03F0130F0BC0138704700BFC9
:10027000034613F8012B002AFBD1181A01387047E6
:1002800081F0004102E000BF83F0004330B54FEA47
:1002900041044FEA430594EA050F08BF90EA020FB4
:1002A0001FBF54EA000C55EA020C7FEA645C7FEA47
:1002B000655C00F0E2804FEA5454D4EB5555B8BF6A
:1002C0006D420CDD2C4480EA020281EA030382EADB
:1002D000000083EA010180EA020281EA0303362D6D
:1002E00088BF30BD11F0004F4FEA01314FF4801C40
:1002F0004CEA113102D0404261EB410113F0004F52
:100300004FEA03334CEA133302D0524263EB430308
:1003100094EA050F00F0A780A4F10104D5F1200EA6
:100320000DDB02FA0EFC22FA05F2801841F1000101
:1003300003FA0EF2801843FA05F359410EE0A5F1D5
:1003400020050EF1200E012A03FA0EFC28BF4CF006
:10035000020C43FA05F3C01851EBE37101F00045BC
:1003600007D54FF0000EDCF1000C7EEB00006EEBC9
:100370000101B1F5801F1BD3B1F5001F0CD3490853
:100380005FEA30004FEA3C0C04F101044FEA4452AA
:1003900012F5800F80F09A80BCF1004F08BF5FEA31
:1003A000500C50F1000041EB045141EA050130BD11
:1003B0005FEA4C0C404141EB0101013C28BFB1F523
:1003C000801FE9D291F0000F04BF01460020B1FA6E
:1003D00081F308BF2033A3F10B03B3F120020CDA41
:1003E0000C3208DD02F1140CC2F10C0201FA0CF01F
:1003F00021FA02F10CE002F11402D8BFC2F1200C84
:1004000001FA02F120FA0CFCDCBF41EA0C01904039
:10041000E41AA2BF01EB0451294330BD6FEA040482
:100420001F3C1CDA0C340EDC04F11404C4F120026D
:1004300020FA04F001FA02F340EA030021FA04F37F
:1004400045EA030130BDC4F10C04C4F1200220FAD6
:1004500002F001FA04F340EA0300294630BD21FA14
:1004600004F0294630BD94F0000F83F4801306BFDA
:1004700081F480110134013D4EE77FEA645C18BFCE
:100480007FEA655C29D094EA050F08BF90EA020F65
:1004900005D054EA000C04BF1946104630BD91EA5D
:1004A000030F1EBF0021002030BD5FEA545C05D160
:1004B0004000494128BF41F0004130BD14F580049F
:1004C0003CBF01F5801130BD01F0004545F0FE4113
:1004D00041F470014FF0000030BD7FEA645C1ABF48
:1004E000194610467FEA655C1CBF0B46024650EA7F
:1004F000013406BF52EA033591EA030F41F40021AB
:1005000030BD00BF90F0000F04BF0021704730B530
:100510004FF4806404F132044FF000054FF0000105
:1005200050E700BF90F0000F04BF0021704730B5C6
:100530004FF4806404F1320410F0004548BF40429B
:100540004FF000013EE700BF42004FEAE2014FEAF0
:1005500031014FEA02701FBF12F07F4393F07F4FCB
:1005600081F06051704732F07F4208BF704793F0CE
:100570007F4F04BF41F40021704730B54FF46074E1
:1005800001F0004521F000411CE700BF50EA0102E4
:1005900008BF704730B54FF000050AE050EA01028D
:1005A00008BF704730B511F0004502D5404261EBFD
:1005B00041014FF4806404F132045FEA915C3FF43E
:1005C000D8AE4FF003025FEADC0C18BF03325FEADB
:1005D000DC0C18BF033202EBDC02C2F1200300FA8C
:1005E00003FC20FA02F001FA03FE40EA0E0021FAB1
:1005F00002F11444BDE600BF70B54FF0FF0C4CF49F
:10060000E06C1CEA11541DBF1CEA135594EA0C0F50
:1006100095EA0C0F00F0DEF82C4481EA030621EA8B
:100620004C5123EA4C5350EA013518BF52EA0335C6
:1006300041F4801143F4801338D0A0FB02CE4FF078
:100640000005E1FB02E506F00042E0FB03E54FF0A8
:100650000006E1FB03569CF0000F18BF4EF0010EA0
:10066000A4F1FF04B6F5007F64F5407404D25FEA9C
:100670004E0E6D4146EB060642EAC62141EA55514F
:100680004FEAC52040EA5E504FEACE2EB4F1FD0C91
:1006900088BFBCF5E06F1ED8BEF1004F08BF5FEA0F
:1006A000500E50F1000041EB045170BD06F00046C1
:1006B00046EA010140EA020081EA0301B4EB5C046E
:1006C000C2BFD4EB0C0541EA045170BD41F4801166
:1006D0004FF0000E013C00F3AB8014F1360FDEBF8B
:1006E000002001F0004170BDC4F10004203C35DA67
:1006F0000C341BDC04F11404C4F1200500FA05F3EA
:1007000020FA04F001FA05F240EA020001F000428A
:1007100021F0004110EBD37021FA04F642EB060100
:100720005EEA430E08BF20EAD37070BDC4F10C042A
:10073000C4F1200500FA04F320FA05F001FA04F2EE
:1007400040EA020001F0004110EBD37041F10001DA
:100750005EEA430E08BF20EAD37070BDC4F12005E5
:1007600000FA05F24EEA020E20FA04F301FA05F24D
:1007700043EA020321FA04F001F0004121FA04F2F5
:1007800020EA020000EBD3705EEA430E08BF20EAC5
:10079000D37070BD94F0000F0FD101F000464000FF
:1007A00041EB010111F4801F08BF013CF7D041EA81
:1007B000060195F0000F18BF704703F00046520085
:1007C00043EB030313F4801F08BF013DF7D043EA56
:1007D0000603704794EA0C0F0CEA135518BF95EA0C
:1007E0000C0F0CD050EA410618BF52EA4306D1D193
:1007F00081EA030101F000414FF0000070BD50EAB2
:10080000410606BF1046194652EA430619D094EA3B
:100810000C0F02D150EA013613D195EA0C0F05D125
:1008200052EA03361CBF104619460AD181EA030179
:1008300001F0004141F0FE4141F470014FF0000031
:1008400070BD41F0FE4141F4780170BD70B54FF0CC
:10085000FF0C4CF4E06C1CEA11541DBF1CEA13554C
:1008600094EA0C0F95EA0C0F00F0A7F8A4EB05042E
:1008700081EA030E52EA03354FEA013100F0888025
:100880004FEA03334FF0805545EA131343EA1263EE
:100890004FEA022245EA111545EA10654FEA0026A3
:1008A0000EF000419D4208BF964244F1FD0404F55C
:1008B000407402D25B084FEA3202B61A65EB0305B8
:1008C0005B084FEA32024FF480104FF4002CB6EB75
:1008D000020E75EB030E22BFB61A754640EA0C00F5
:1008E0005B084FEA3202B6EB020E75EB030E22BF35
:1008F000B61A754640EA5C005B084FEA3202B6EB76
:10090000020E75EB030E22BFB61A754640EA9C0034
:100910005B084FEA3202B6EB020E75EB030E22BF04
:10092000B61A754640EADC0055EA060E18D04FEAC2
:10093000051545EA16754FEA06164FEAC30343EA62
:1009400052734FEAC2025FEA1C1CC0D111F4801F2F
:100950000BD141EA00014FF000004FF0004CB6E728
:1009600011F4801F04BF01430020B4F1FD0C88BFC7
:10097000BCF5E06F3FF6AFAEB5EB030C04BFB6EBD2
:10098000020C5FEA500C50F1000041EB045170BDC5
:100990000EF0004E4EEA113114EB5C04C2BFD4EBF2
:1009A0000C0541EA045170BD41F480114FF0000E76
:1009B000013C90E645EA060E8DE60CEA135594EAF2
:1009C0000C0F08BF95EA0C0F3FF43BAF94EA0C0FF5
:1009D0000AD150EA01347FF434AF95EA0C0F7FF46A
:1009E00025AF104619462CE795EA0C0F06D152EABE
:1009F00003353FF4FDAE1046194622E750EA4106A2
:100A000018BF52EA43067FF4C5AE50EA41047FF4B2
:100A10000DAF52EA43057FF4EBAE12E74FF0FF3C17
:100A200006E000BF4FF0010C02E000BF4FF0010CE8
:100A30004DF804CD4FEA410C7FEA6C5C4FEA430C61
:100A400018BF7FEA6C5C1BD001B050EA410C0CBFB0
:100A500052EA430C91EA030F02BF90EA020F002012
:100A6000704710F1000F91EA030F58BF994208BF79
:100A700090422CBFD8176FEAE37040F00100704736
:100A80004FEA410C7FEA6C5C02D150EA013C07D18D
:100A90004FEA430C7FEA6C5CD6D152EA033CD3D0D8
:100AA0005DF8040B704700BF8446104662468C46D2
:100AB0001946634600E000BF01B5FFF7B7FF002805
:100AC00048BF10F1000F01BD4DF808EDFFF7F4FF2E
:100AD0000CBF012000205DF808FB00BF4DF808EDB9
:100AE000FFF7EAFF34BF012000205DF808FB00BFDC
:100AF0004DF808EDFFF7E0FF94BF012000205DF8FE
:100B000008FB00BF4DF808EDFFF7CEFF94BF0120B2
:100B100000205DF808FB00BF4DF808EDFFF7C4FFAB
:100B200034BF012000205DF808FB00BF4FEA410CF4
:100B30007FEA6C5C02D150EA013C0AD14FEA430CD7
:100B40007FEA6C5C02D152EA033C02D14FF0000014
:100B500070474FF0010070474FEA410212F5001252
:100B600015D211D56FF47873B3EB625212D94FEAF4
:100B7000C12343F0004343EA505311F0004F23FADE
:100B800002F018BF404270474FF00000704750EA33
:100B9000013005D111F0004008BF6FF000407047F0
:100BA0004FF00000704700BF4A0011D212F500124A
:100BB00011D20DD56FF47873B3EB62520ED44FEAB5
:100BC000C12343F0004343EA505323FA02F0704735
:100BD0004FF00000704750EA013002D14FF0FF3073
:100BE00070474FF0000070474FEA4102B2F1E04316
:100BF00024BFB3F5001CDCF1FE5C0DD901F0004C04
:100C00004FEAC0024CEA5070B2F1004F40EB830053
:100C100008BF20F00100704711F0804F21D113F17F
:100C20003872BCBF01F00040704741F480114FEAB8
:100C30005252C2F11802C2F1200C10FA0CF320FA41
:100C400002F018BF40F001004FEAC1234FEAD3235E
:100C500003FA0CFC40EA0C0023FA02F34FEA4303C8
:100C6000CCE77FEA625307D150EA01331EBF4FF051
:100C7000FE4040F44000704701F0004040F0FE406C
:100C800040F40000704700BF53B94AB9002908BFBB
:100C900000281CBF4FF0FF314FF0FF3000F0BEB90D
:100CA000ADF1080C6DE904CE00F03CF8DDF804E08D
:100CB000DDE9022304B0704738B500220023044662
:100CC0000D46FFF70BFF28B920462946BDE83840FE
:100CD00000F00AB8204605F1004100F005F8404256
:100CE00061EB410138BD00BFD0B50C4B0022064678
:100CF0000F46FFF781FCFFF757FF0446FFF702FCA2
:100D0000074B0022FFF778FC02460B463046394677
:100D1000FFF7BAFAFFF748FF2146D0BD0000F03DCB
:100D20000000F0412DE9F047089D8E4604468846B4
:100D3000002B4AD18A42174662D9B2FA82F64EB1E6
:100D4000C6F1200301FA06F820FA03F3B74043EA9C
:100D50000808B4404FEA174E1FFA87FCB8FBFEF1B3
:100D6000230C0EFB118843EA084301FB0CF29A4264
:100D700009D9FB1801F1FF3080F0EA809A4240F275
:100D8000E78002393B449A1AA3B2B2FBFEF00EFB95
:100D9000102243EA024300FB0CFC9C4509D9FB18D6
:100DA00000F1FF3280F0D6809C4540F2D3803B4476
:100DB000023840EA0140A3EB0C0300211DB1F340CF
:100DC0000022C5E90032BDE8F0878B4205D90DB19C
:100DD000C5E9000100210846F5E7B3FA83F10029CF
:100DE00046D1734502D3824200F20581841A6EEB2C
:100DF000030201209046002DE5D0C5E90048E2E756
:100E0000002A00F09080B2FA82F6002E40F0A48012
:100E10008A1A030C4FEA174E80B2BCB20121B2FB12
:100E2000FEFC0EFB1C2243EA024304FB0CF29A4236
:100E300007D9FB180CF1FF3802D29A4200F2E08089
:100E4000C4469B1AB3FBFEF20EFB123340EA034387
:100E500002FB04F49C4207D9FB1802F1FF3002D2D6
:100E60009C4200F2CA8002461B1B42EA0C40A5E7E6
:100E7000C1F120068B4022FA06F71F430EFA01F457
:100E800020FA06F32EFA06FE4FEA1749234300FA2A
:100E900001F81FFA87FCBEFBF9F01C0C09FB10EEF1
:100EA00044EA0E4400FB0CFEA64502FA01F209D901
:100EB0003C1900F1FF3A80F09C80A64540F29980F1
:100EC00002383C44A4EB0E041FFA83FEB4FBF9F392
:100ED00009FB13444EEA044403FB0CFCA44508D967
:100EE0003C1903F1FF3E80F08280A4457FD9023B8C
:100EF0003C4443EA0040A4EB0C04A0FB02EC644534
:100F00007346E14662D35FD05DB1B8EB030264EB98
:100F1000090404FA06F622FA01F31E43CC40C5E99F
:100F2000006400214FE7B1FBF2FC010C41EA0E41E5
:100F300080B240EA01423B4638463C46B846BE468F
:100F40002026B1FBF7F1A2EB080241EA0C4166E76B
:100F5000014618E710462CE7C6F120022EFA02F3EC
:100F6000B740B14020FA02F24FEA174E0A43B3FBF2
:100F7000FEF8BCB20EFB1833110C41EA034108FB2A
:100F800004F9B04089454FEA104380B23ED9791840
:100F900008F1FF3C01D289451FD8A1EB0901B1FB43
:100FA000FEF909FB04F80EFB191192B242EA014264
:100FB000424529D2BA1809F1FF31C4D24245C2D202
:100FC000A9F102013A44BEE7F0459DD2BEEB02030F
:100FD0006CEB070C0138E14696E7A7EB0909494499
:100FE000A8F1020CB1FBFEF909FB04F8DBE773463C
:100FF0007FE7504666E70846FDE63B44023A33E7A2
:10100000ACF1020C3B441CE749469CE7A1EB09010B
:10101000C446B1FBFEF909FB04F8C4E7704700BF02
:1010200080B584B000AF3B4600221A605A609A60D7
:10103000DA60214B214A1A601F4B4FF480325A600C
:101040001D4B00229A601C4B00221A611A4B002291
:101050001A76194B002283F82020174B0022DA62FF
:10106000154B174A9A62144B0022DA60124B012288
:10107000DA61114B002283F830200F4B01225A61B4
:101080000D4806F03DFC0346002B01D001F0C6FAE6
:101090000C233B6001237B600023BB603B46194669
:1010A000054806F071FC0346002B01D001F0B6FAAA
:1010B00000BF1037BD4680BDFC020020002001406B
:1010C0000100000F80B58AB000AF786007F114030B
:1010D00000221A605A609A60DA601A617B681B68A5
:1010E000174A934227D100233B61164B5B6C154A8C
:1010F00043F480735364134B5B6C03F480733B6164
:101100003B690023FB600F4B1B6B0E4A43F004034B
:1011100013630C4B1B6B03F00403FB60FB6804239D
:101120007B610323BB610023FB6107F114031946B4
:10113000054807F05BFB00BF2837BD4680BD00BFF8
:1011400000200140003802400008024080B582B013
:1011500000AF00237B600C4B1B6B0B4A43F4001366
:101160001363094B1B6B03F400137B607B68002245
:1011700000210C2006F001FF0C2006F01AFF00BF32
:101180000837BD4680BD00BF0038024080B58CB036
:1011900000AF07F11C0300221A605A609A60DA60FF
:1011A0001A610023BB618D4B1B6B8C4A43F010030B
:1011B00013638A4B1B6B03F01003BB61BB690023F5
:1011C0007B61864B1B6B854A43F004031363834B9F
:1011D0001B6B03F004037B617B6900233B617F4B46
:1011E0001B6B7E4A43F0800313637C4B1B6B03F045
:1011F00080033B613B690023FB60784B1B6B774AA4
:1012000043F001031363754B1B6B03F00103FB6099
:10121000FB680023BB60714B1B6B704A43F00203F9
:1012200013636E4B1B6B03F00203BB60BB680023B0
:101230007B606A4B1B6B694A43F008031363674B7F
:101240001B6B03F008037B607B68002248F25C01A3
:10125000634807F063FD002242F20801614807F08D
:101260005DFD00221021604807F058FD00224FF478
:1012700040515E4807F052FD00224FF602415C48A3
:1012800007F04CFD48F25C03FB6101233B62002345
:101290007B620023BB6207F11C031946504807F02C
:1012A000A5FA42F20803FB6101233B6200237B6243
:1012B0000023BB6207F11C0319464A4807F096FA5F
:1012C0001023FB6101233B6200237B620023BB628E
:1012D00007F11C031946444807F088FA4FF40363EA
:1012E000FB614FF488133B6202237B6207F11C030E
:1012F00019463C4807F07AFA4FF4AC53FB614FF4BF
:1013000088133B6202237B6207F11C0319463448B1
:1013100007F06CFA4FF44053FB6101233B6200235A
:101320007B620023BB6207F11C0319462F4807F0BC
:101330005DFA4FF60243FB6101233B6200237B62AF
:101340000023BB6207F11C031946294807F04EFA37
:101350000123FB614FF488133B6202237B6207F198
:101360001C031946224807F041FA4823FB614FF459
:1013700088133B6200237B6207F11C0319461C485B
:1013800007F034FA00220021062006F0F6FD0620C0
:1013900006F00FFE00220021092006F0EEFD0920D4
:1013A00006F007FE002200210A2006F0E6FD0A20D2
:1013B00006F0FFFD00220021172006F0DEFD1720B9
:1013C00006F0F7FD00220021282006F0D6FD282097
:1013D00006F0EFFD00BF3037BD4680BD003802404B
:1013E00000100240000802400000024000040240D9
:1013F000000C024080B500AF124B134A1A60114B2B
:10140000124A5A600F4B00229A600E4B0022DA609B
:101410000C4B4FF480421A610A4B00225A61094B6F
:1014200000229A61074B0022DA61064B00221A6201
:10143000044807F0A5FC0346002B01D001F0EEF8AC
:1014400000BF80BD4403002000540040A08601007E
:1014500080B500AF124B134A1A60114B124A5A6002
:101460000F4B00229A600E4B0022DA600C4B4FF4B7
:1014700080421A610A4B00225A61094B00229A618C
:10148000074B0022DA61064B00221A62044807F07B
:1014900077FC0346002B01D001F0C0F800BF80BDEF
:1014A0009803002000580040A086010080B500AFDE
:1014B000124B134A1A60114B124A5A600F4B00220A
:1014C0009A600E4B0022DA600C4B4FF480421A6196
:1014D0000A4B00225A61094B00229A61074B0022F5
:1014E000DA61064B00221A62044807F049FC034601
:1014F000002B01D001F092F800BF80BDEC0300206A
:10150000005C0040A086010080B58EB000AF78601E
:1015100007F1240300221A605A609A60DA601A61A7
:101520007B681B685B4A93422CD100233B625A4B79
:101530001B6B594A43F002031363574B1B6B03F0B9
:1015400002033B623B6AC0237B621223BB6200231F
:10155000FB6203233B6304237B6307F124031946E7
:101560004E4807F043F90023FB614B4B1B6C4A4A82
:1015700043F400131364484B1B6C03F40013FB612A
:10158000FB6983E07B681B68454A93422DD10023A9
:10159000BB61414B1B6B404A43F0020313633E4B5C
:1015A0001B6B03F00203BB61BB694FF440637B62BA
:1015B0001223BB620023FB6203233B6304237B6390
:1015C00007F124031946354807F010F900237B6121
:1015D000314B1B6C304A43F4800313642E4B1B6C5D
:1015E00003F480037B617B6950E07B681B682D4AB4
:1015F00093424BD100233B61274B1B6B264A43F0A0
:1016000004031363244B1B6B03F004033B613B692E
:101610000023FB60204B1B6B1F4A43F00103136345
:101620001D4B1B6B03F00103FB60FB684FF4007361
:101630007B621223BB620023FB6203233B63042310
:101640007B6307F124031946174807F0CFF84FF4DE
:1016500080737B621223BB620023FB6203233B6324
:1016600004237B6307F124031946104807F0BEF8F2
:101670000023BB60084B1B6C074A43F40003136450
:10168000054B1B6C03F40003BB60BB6800BF38371D
:10169000BD4680BD005400400038024000040240B6
:1016A00000580040005C004000080240000002407A
:1016B00080B48BB000AF87ED010A9FED4F7AD7ED74
:1016C000017AF4EEC77AF1EE10FA08DBDFED4B7A1F
:1016D000FCEEE77AC7ED007A3B78DBB286E00C23BC
:1016E0003B623B6A013B464ADB001344D3ED007A80
:1016F00097ED017AB4EEE77AF1EE10FA0ED83B6A74
:10170000013B3F4ADB0013440433D3ED007AFCEE87
:10171000E77AC7ED007A3B78DBB267E000237B62B3
:101720005EE0374A7B6ADB001344D3ED007A97ED25
:10173000017AB4EEE77AF1EE10FA4ED87B6A013303
:101740002F4ADB001344D3ED007A97ED017AB4EE13
:10175000E77AF1EE10FA40DB294A7B6ADB0013449A
:101760001B68FB617B6A0133254ADB0013441B685D
:10177000BB61234A7B6ADB00134404331B687B6133
:101780007B6A01331E4ADB00134404331B683B6150
:1017900097ED017AD7ED067A37EE677AD7ED056ACD
:1017A000D7ED047A76EEE77A67EE276A97ED077A47
:1017B000D7ED067A37EE677AC6EE877A97ED047A28
:1017C00077EE277AC7ED037AD7ED037AFCEEE77A56
:1017D000C7ED007A3B78DBB208E07B6A01337B62BD
:1017E0003B6A013B7A6A9A429BDB002318462C37FE
:1017F000BD465DF8047B70479A9969410000C84274
:101800003886010880B584B000AFF860B9607A60AE
:101810007B689AB26423B96803480CF077F87B6858
:1018200018461037BD4680BD7012002080B592B0BA
:1018300000AF00237B6485E17B6C01337B644FF454
:1018400080616C4810F00CFF03467B876A4B1B8855
:101850001A467B8F1344B3F5006F17DA664B1B886B
:101860001A46664B13447A8F6249184613F032FBCE
:10187000614B1A887B8F13449AB25F4B1A805E4B80
:101880001B881A465D4B0021995452E15A4B0022A5
:101890001A805B4813F022FA4BE17B6B00221A702E
:1018A000564B3B63396B574813F0B0F95649386BC8
:1018B00013F081FA0346002B07D0544B02221A7012
:1018C000534B4FF07E521A6041E05249386B13F08F
:1018D00072FA0346002B06D04C4B01221A704C4B77
:1018E0004D4A1A6033E04D49386B13F064FA0346F1
:1018F000002B06D0454B03221A70454B484A1A600C
:1019000025E04849386B13F056FA0346002B1ED0E9
:101910003E4B00221A703E4B4FF000021A6001232A
:1019200000220121012003F01BF9012300220121E3
:10193000022003F015F9012300220121032003F006
:101940000FF9012300220121042003F009F92F4B94
:101950001B78002B00F0A3804FF000037B604FF05A
:1019600000033B603B463A1D2F49386B12F080F96B
:101970000346022B40F09380254BD3ED007A9FED78
:101980002B7A67EE877AC7ED0B7AD7ED017A97ED60
:101990000B7A67EE277AC7ED0A7AD7ED007A97EDD2
:1019A0000B7A67EE277AC7ED097A97ED0A7AD7EDB9
:1019B000097A77EE677AC7ED087A97ED0A7AD7ED5C
:1019C000097A77EE277AC7ED077AD7ED087AF5EE30
:1019D000C07AF1EE10FA01DB012301E04FF0FF3392
:1019E000BB61D7ED077AF5EEC07AF1EE10FA1FDB96
:1019F00001231FE084040020D0100020D008002024
:101A0000608001088080010890800108D2100020C9
:101A1000D4100020988001083333333FA0800108A0
:101A2000CDCCCC3EA4800108AC8001080000C842A7
:101A30004FF0FF337B61D7ED087AF0EEE77AFCEEEA
:101A4000E77A17EE903A3B64D7ED077AF0EEE77A43
:101A5000FCEEE77A17EE903AFB633B6C642B01D9FE
:101A600064233B64FB6B642B01D96423FB63012378
:101A70003A6CB969012003F073F801233A6CB96933
:101A8000022003F06DF80123FA6B7969032003F05B
:101A900067F80123FA6B7969042003F061F80023E9
:101AA000BB6007F108031A462D49386B12F0E0F8C5
:101AB0000346012B09D007F108031A462949386B60
:101AC00012F0D6F80346012B14D1BB68642B01DD5C
:101AD0006423BB60BB68002B01DA0023BB60BB68DA
:101AE000DAB2214B1A70204B1B78DBB219461F4823
:101AF00013F08CF87B6B1E4A9B1A01333B611D4B24
:101B00001B881A463B69D31AFB60FB68002B06DD75
:101B10007B6B0133FA681946154813F0E7F8FB6848
:101B20009AB2144B1A80134B1B881A46104B002193
:101B300099540A210E4813F0FBF878637B6B002B55
:101B40007FF4ABAE10F050FD0346002B03D07B6C4E
:101B5000042B7FF771AE00BF4837BD4680BD00BF84
:101B6000B8800108C4800108CC080020D08001089A
:101B7000D0080020D01000202DE9F04F2DED028B71
:101B8000ADF5477D18AF05F025FE00F065FCFFF7C9
:101B9000FDFAFFF7DBFAFFF72DFCFFF759FC01F028
:101BA00083FA01F0D5FAFFF73BFAFFF77FFC00F06C
:101BB0003BFD00F085FF01F047F801F09FFA01F0CE
:101BC0009DFA01F0EFFA01F0D7F800F0F3FC07F509
:101BD000127300221A605A609A60DA601A61002358
:101BE000C7F84432A64B1B6BA54A43F001031363AD
:101BF000A34B1B6B03F00103C7F84432D7F8443200
:101C00004FF48053C7F848320123C7F84C32002301
:101C1000C7F850320023C7F8543207F5127319463B
:101C2000984806F0E3FD00224FF48051954807F0F4
:101C300075F84FF4FA7005F03FFE4FF4805191486B
:101C400006F070FF10F08AFB02F05AFF8E480AF08F
:101C5000EBFD4FF400728D498D480BF0E2FE8D488C
:101C600013F03CF801F084FD8B4B1B78E52B06D17B
:101C70008A4813F033F88A4B01221A7008E0864B29
:101C80001B781946874812F0C1FF854B00221A7055
:101C9000854813F023F840228449854801F0D2FC9E
:101CA0000346002B09D0834813F018F8804801F050
:101CB000A3FC814B01221A7027E0804813F00EF834
:101CC0007D4B00221A707E4813F008F84023A7F8D5
:101CD000B63216E0B7F8B6325B0099B2642303223D
:101CE000724807F0EDFF0346002B05D1B7F8B63276
:101CF0001946744812F08AFFB7F8B6320133A7F8D4
:101D0000B632B7F8B6324F2BE4D96F4812F0E6FF7F
:101D10000123A7F8B43216E0B7F8B4325B0099B2E9
:101D20000A230122614807F0CBFF0346002B05D1AF
:101D3000B7F8B4321946654812F068FFB7F8B43204
:101D40000133A7F8B432B7F8B4327F2BE4D9604836
:101D500012F0C4FF5F4812F0C1FF54495E4805F01D
:101D6000E7F9034687F8733297F97332002B06D1EF
:101D70005A4812F0B3FF5A4B01221A7008E097F943
:101D800073321946574812F041FF554B00221A7022
:101D9000554812F0A3FF454803F042F80346002BD4
:101DA0000CD1524812F09AFF404803F056F8504BBD
:101DB00001221A70642005F07FFD05E04D4812F005
:101DC0008DFF4B4B00221A700023C7F8B03200235E
:101DD000C7F8AC324FF00003C7F8A8324FF0000349
:101DE000C7F8A4324FF00003C7F8A032424BC7F83F
:101DF0006C320023C7F89C3205F052FD0246D7F83A
:101E0000B032D31A632B11D905F04AFDC7F8B002DE
:101E1000374B1B78002B09D0244803F041F80346C8
:101E2000002B03D03549214803F067F805F038FD51
:101E30000246D7F8AC32D31A40F6B732934240F29A
:101E4000908005F02DFDC7F8AC02254B1B78002BC8
:101E500000F08780204805F0B7F9034687F86B3219
:101E600005F048FC87ED990A97F96B32002B49D0B1
:101E700097F96B321946224812F0C8FE71E000BF94
:101E8000003802400000024084080020B8130020FF
:101E9000B8120020E8800108B61300200081010874
:101EA000E41000201C81010840810108EC0300209F
:101EB000EC1000205C810108E7100020708101080F
:101EC00088810108B8810108FC8101081482010899
:101ED000348201084482010840040020688201081D
:101EE000E5100020808201089C820108B48201086C
:101EF000E6100020C8820108CDCCCC3D5C04002057
:101F0000DC820108A54BDB681846FEF71DFBC7E91C
:101F10000E01A24B5B691846FEF716FB04460D4600
:101F20009E4B1B691846FEF70FFB804689469B4B6C
:101F30009B691846FEF708FB82468B46D7F8640279
:101F4000FEF702FB02460B46CDE90623CDE904ABC2
:101F5000CDE90289CDE90045D7E90E23904812F07A
:101F600055FE904B1B68D7F89C229A4226D08D4B89
:101F70001B68C7F89C320023A7F8423207F24223BD
:101F80001946894802F078FCC7F86002B7F8423277
:101F9000002B13D0B7F84232B3F5007F08D2B7F860
:101FA00042321A46D7F86032134400221A7005E014
:101FB000D7F8603203F2FF1300221A707B4B1B78B4
:101FC000002B46D105F06CFC0246794B1B68D31AF6
:101FD000632B16D910F02CFB0346002B11D1754B47
:101FE0001C68744B1B681846FEF742F903469BB207
:101FF0001946204610F094FA05F052FC03466C4A4C
:10200000136010F0F1FA0346002B3FF4F5AE4FF4E5
:102010008061694810F024FB0346A7F85C32B7F8EA
:102020005C32654A0021D1546349644812F0EEFDE8
:10203000634B1B681946604812F0BDFE0346002B37
:102040003FF4DAAE594B01221A705E4812F046FE98
:10205000D2E6FFF7EBFB05F023FC02465A4B1B6868
:10206000D31A632B40F2878110F0E2FA0346002B6B
:1020700040F081810023A7F89A320023A7F8983214
:102080000023A7F89632514B1B78002B0ED001F09D
:1020900083FB0346A7F89A3201F096FB0346A7F8A4
:1020A000983201F0A9FB0346A7F89632B7F99A32A5
:1020B00007EE903AB8EEE77AD7ED9B7A27EE277ACB
:1020C000F7EE006AD7ED9B7A76EEE76AD7EDAA7A4B
:1020D00066EEA77A77EE277AC7EDAA7AB7F9983233
:1020E00007EE903AB8EEE77AD7ED9B7A27EE277A9B
:1020F000F7EE006AD7ED9B7A76EEE76AD7EDA97A1C
:1021000066EEA77A77EE277AC7EDA97AB7F9963205
:1021100007EE903AB8EEE77AD7ED9B7A27EE277A6A
:10212000F7EE006AD7ED9B7A76EEE76AD7EDA87AEC
:1021300066EEA77A77EE277AC7EDA87A4FF000030C
:10214000C7F89032224B1B78002B0DD0214801F0AC
:10215000C5F9034607EE903AB8EEE77ADFED1E6A5E
:10216000C7EE267AC7EDA47A97EDA40AFFF7A0FA86
:10217000034687F85F32194BC7F88C32184B1B782F
:10218000012B03D1174BC7F88C3236E0144B1B7868
:10219000022B2BD1144BC7F88C322EE040040020C8
:1021A000F8820108B8150020BC150020DC100020C2
:1021B000E010002000000020840400204C8301086F
:1021C0000400002058830108D8100020E4100020EB
:1021D000E7100020EC10002000007A44A4800108E1
:1021E000D210002098800108908001088B4B1B784A
:1021F000032B02D18A4BC7F88C324FF00003C7F88B
:1022000088324FF00003C7F884324FF00003C7F85C
:1022100080324FF00003C7F87C324FF00003C7F85C
:102220007832804B1B78002B13D07F4BDB68C7F8CC
:1022300088327D4B5B69C7F884327B4B1B69C7F8DA
:102240008032794B9B69C7F87C3205F053FA87EDF1
:102250009E0AD7EDAA7ABDEEE78AD7EDA97AFDEE00
:10226000E77AC7ED0E7AD7EDA87AFDEEE77AC7EDEB
:102270000D7AD7F89002FEF767F9C7E90A0197F8D7
:102280005F62D7F88802FEF75FF9C7E90801D7F85F
:102290008402FEF759F9C7E90601D7F88002FEF774
:1022A00053F9C7E90401D7F87802FEF74DF9C7E9F9
:1022B0000201D7F87C02FEF747F9C7E900015B4B42
:1022C0001B681846FEF740F982468B46574B5B6801
:1022D0001846FEF739F980468946544B9B681846E4
:1022E000FEF732F904460D46504BDB681846FEF700
:1022F0002BF902460B4607F14000CDE91623CDE944
:102300001445CDE91289CDE910AB97ED007B8DED39
:102310000E7B97ED027B8DED0C7B97ED047B8DEDB5
:102320000A7B97ED067B8DED087B97ED087B8DEDA5
:10233000067B049697ED0A7B8DED027B7B6B019308
:10234000BB6B009318EE103AD7F88C22384911F085
:102350006DFC07F140031846FDF78AFF03469AB269
:1023600007F140031146184610F0DAF805F098FA24
:102370000346304A136005F093FA02462E4B1B6861
:10238000D31AB3F57A7FFFF437AD10F051F9034655
:10239000002B7FF431AD294BC7F874321F4B1B78EB
:1023A000012B03D1264BC7F874320EE01B4B1B7870
:1023B000022B03D1234BC7F8743206E0174B1B786E
:1023C000032B02D1164BC7F874321F4B1B781C46E7
:1023D000144B1B781A461D4B1B7819461C4B1B7857
:1023E00007F140000293019100922346D7F874222E
:1023F000184911F01BFC07F140031846FDF738FFA0
:1024000003469AB207F140031146184610F088F8C7
:1024100005F046FA0346084A1360EDE4D2100020A6
:10242000A0800108E5100020400400205C0400208A
:102430006C830108D8100020E8100020A480010857
:102440009880010890800108E4100020E610002028
:10245000E71000200884010880B594B000AF07F1B0
:10246000200330220021184612F05AFC07F10C0319
:1024700000221A605A609A60DA601A610023BB6019
:10248000284B1B6C274A43F080531364254B1B6C6D
:1024900003F08053BB60BB6800237B60224B1B684A
:1024A000214A43F4804313601F4B1B6803F48043AD
:1024B0007B607B6801233B624FF480337B620223A5
:1024C000BB634FF48003FB6319233B644FF4A87391
:1024D0007B640223BB640723FB6407F120031846D7
:1024E00009F072FC0346002B01D000F097F80F238F
:1024F000FB6002233B6100237B614FF4A053BB616F
:102500004FF48053FB6107F10C030521184609F0D5
:10251000D3FE0346002B01D000F080F800BF5037F7
:10252000BD4680BD003802400070004080B483B0DA
:1025300000AF0346FB8000BF0C37BD465DF8047B4F
:102540007047000080B582B000AF78607B681B6880
:10255000144A934221D1144B1B78DBB20133DAB217
:10256000114B1A70104B1B78DBB2632B02D90E4B48
:1025700000221A700C4B1B78DAB20C4B1B78DBB2C2
:102580009A4205D201220821094806F0C7FB04E05F
:1025900000220821064806F0C1FB00BF0837BD46EF
:1025A00080BD00BF00100040CD080020CC080020F6
:1025B0000010024080B582B000AF3B4600221A6096
:1025C0005A60144B144A1A60124B53225A60114B32
:1025D00000229A600F4B6322DA600E4B00229A6150
:1025E0000C480AF0D2F80346002B01D000F016F890
:1025F00000233B6000237B603B46194605480BF0F7
:1026000053F80346002B01D000F008F800BF08374C
:10261000BD4680BD840800200010004080B400AF9B
:1026200072B600BF00BFFDE780B500AF174B184A78
:102630001A60164B4FF482725A60144B00229A6053
:10264000124B0022DA60114B00221A610F4B00225C
:102650005A610E4B4FF400729A610C4B0022DA6102
:102660000A4B00221A62094B00225A62074B0022D1
:102670009A62064B0A22DA62044809F0FDFF03461B
:10268000002B01D0FFF7CAFF00BF80BDF41000206F
:102690000030014080B58AB000AF786007F11403C4
:1026A00000221A605A609A60DA601A617B681B68BF
:1026B000284A934249D100233B61274B5B6C264A51
:1026C00043F480535364244B5B6C03F480533B61AD
:1026D0003B690023FB60204B1B6B1F4A43F0010347
:1026E00013631D4B1B6B03F00103FB60FB680023AE
:1026F000BB60194B1B6B184A43F002031363164B64
:102700001B6B03F00203BB60BB6820237B610223C9
:10271000BB610023FB6103233B6205237B6207F15E
:10272000140319460D4806F061F830237B6102233B
:10273000BB610023FB6103233B6205237B6207F13E
:1027400014031946064806F051F800BF2837BD4665
:1027500080BD00BF00300140003802400000024050
:102760000004024080B483B000AF00237B60104BB4
:102770005B6C0F4A43F4804353640D4B5B6C03F472
:1027800080437B607B6800233B60094B1B6C084ADD
:1027900043F080531364064B1B6C03F080533B6083
:1027A0003B6800BF0C37BD465DF8047B704700BF37
:1027B0000038024080B400AF00BFFDE780B400AF36
:1027C00000BFFDE780B400AF00BFFDE780B400AFFD
:1027D00000BFFDE780B400AF00BFFDE780B400AFED
:1027E00000BFBD465DF8047B704780B400AF00BFFA
:1027F000BD465DF8047B704780B400AF00BFBD46A6
:102800005DF8047B704780B500AF05F035F800BF78
:1028100080BD80B500AF012006F09AFA00BF80BDF0
:1028200080B500AF082006F093FA00BF80BD80B5E8
:1028300000AF102006F08CFA00BF80BD80B500AF5D
:10284000024805F069FD00BF80BD00BF48130020AD
:1028500080B500AF202006F07BFA402006F078FA21
:10286000802006F075FA4FF4807006F071FA00BF10
:1028700080BD000080B500AF02480AF05DF900BFDE
:1028800080BD00BF5011002080B500AF02480AF0A3
:1028900053F900BF80BD00BF5011002080B500AFCC
:1028A00002480AF049F900BF80BD00BF5011002066
:1028B00080B500AF02480AF03FF900BF80BD00BFFD
:1028C0005011002080B500AF02480AF035F900BF72
:1028D00080BD00BF9811002080B500AF02480AF00B
:1028E0002BF900BF80BD00BF8408002080B500AF79
:1028F00002480BF0EFF800BF80BD00BF701200204F
:1029000080B500AF02480BF0E5F800BF80BD00BF06
:10291000B812002080B500AF4FF4806006F018FABE
:102920004FF4006006F014FA4FF4805006F010FAED
:1029300000BF80BD80B500AF024808F037F900BF86
:1029400080BD00BF3837002080B400AF0123184697
:10295000BD465DF8047B704780B582B000AF7860FB
:10296000396012F075FA034616221A604FF0FF33F1
:1029700018460837BD4680BD80B582B000AF78608C
:102980004FF0FF317868FFF7E7FF00BFFDE780B544
:1029900086B000AFF860B9607A6000237B610AE01E
:1029A000AFF300800146BB685A1CBA60CAB21A7005
:1029B0007B6901337B617A697B689A42F0DB7B68D3
:1029C00018461837BD4680BD80B483B000AF78602C
:1029D0004FF0FF3318460C37BD465DF8047B704757
:1029E00080B483B000AF786039603B684FF4005228
:1029F0005A60002318460C37BD465DF8047B7047CB
:102A000080B483B000AF7860012318460C37BD4610
:102A10005DF8047B704780B485B000AFF860B960A2
:102A20007A60002318461437BD465DF8047B704772
:102A300080B586B000AF7860144A154BD31A7B611D
:102A40007B693B61134B1B68002B02D1114B124A6F
:102A50001A60104B1A687B6813443A699A4207D28D
:102A600012F0F6F903460C221A604FF0FF3309E02A
:102A7000084B1B68FB60074B1A687B681344054AC8
:102A80001360FB6818461837BD4680BD0000022061
:102A9000000400004C110020883F002080B400AFEB
:102AA000064BD3F88830054A43F47003C2F88830E7
:102AB00000BFBD465DF8047B704700BF00ED00E03D
:102AC00080B596B000AF07F1480300221A605A6043
:102AD0009A60DA6007F1400300221A605A6007F139
:102AE000240300221A605A609A60DA601A615A61FF
:102AF0009A613B1D20220021184612F011F9504B1B
:102B0000504A1A604E4B44F620625A604C4B0022E9
:102B10009A604B4B6422DA60494B00221A61484BA1
:102B200000225A61464B00229A61454809F02DFE69
:102B30000346002B01D0FFF771FD4FF48053BB64B7
:102B400007F1480319463E480AF0A8F90346002B4E
:102B500001D0FFF763FD3A4809F0D6FE0346002B8B
:102B600001D0FFF75BFD00233B6400237B6407F18A
:102B70004003194632480AF097FD0346002B01D066
:102B8000FFF74CFD60237B620023BB620023FB62E6
:102B900000233B6300237B630023BB630023FB63B1
:102BA00007F124030022194625480AF0B5F8034628
:102BB000002B01D0FFF732FD07F124030422194650
:102BC0001F480AF0A9F80346002B01D0FFF726FDA5
:102BD00007F124030822194619480AF09DF8034614
:102BE000002B01D0FFF71AFD07F124030C22194630
:102BF00013480AF091F80346002B01D0FFF70EFDB1
:102C000000237B600023BB600023FB6000233B614B
:102C100000237B614FF40053BB6100233B623B1DEB
:102C2000194607480AF0BCFD0346002B01D0FFF708
:102C3000F5FC034800F08EF900BF5837BD4680BD53
:102C4000501100200000014080B58EB000AF07F1A8
:102C5000280300221A605A609A60DA6007F12003A4
:102C600000221A605A603B1D00221A605A609A6066
:102C7000DA601A615A619A613D4B3E4A1A603C4BD8
:102C800044F620625A603A4B00229A60384B642224
:102C9000DA60374B00221A61354B00229A613448C2
:102CA00009F073FD0346002B01D0FFF7B7FC4FF48A
:102CB0008053BB6207F1280319462D480AF0EEF84D
:102CC0000346002B01D0FFF7A9FC294809F01CFEA0
:102CD0000346002B01D0FFF7A1FC00233B62002339
:102CE0007B6207F12003194621480AF0DDFC034608
:102CF000002B01D0FFF792FC60237B600023BB60B8
:102D00000023FB6000237B613B1D0022194618480D
:102D10000AF002F80346002B01D0FFF77FFC3B1DB1
:102D200004221946124809F0F7FF0346002B01D090
:102D3000FFF774FC3B1D082219460D4809F0ECFF13
:102D40000346002B01D0FFF769FC3B1D0C221946FE
:102D5000074809F0E1FF0346002B01D0FFF75EFCB6
:102D6000034800F0F7F800BF3837BD4680BD00BF0C
:102D7000981100200004004080B588B000AF3B1DD2
:102D800000221A605A609A60DA601A615A619A6188
:102D90001F4B204A1A601E4B00225A601C4B002217
:102DA0009A601B4B4FF6FF72DA60194B00221A61D2
:102DB000174B00229A61164809F0A6FD0346002B26
:102DC00001D0FFF72BFC60237B600023BB60002356
:102DD000FB6000237B613B1D002219460C4809F073
:102DE0009BFF0346002B01D0FFF718FC3B1D04227C
:102DF0001946074809F090FF0346002B01D0FFF762
:102E00000DFC034800F0A6F800BF2037BD4680BD8A
:102E1000E01100200018004080B586B000AF786057
:102E20007B681B68364A93422ED100237B61354B69
:102E30005B6C344A43F001035364324B5B6C03F028
:102E400001037B617B6900220021182005F095F8C1
:102E5000182005F0AEF800220021192005F08DF8A9
:102E6000192005F0A6F8002200211A2005F085F8A7
:102E70001A2005F09EF8002200211B2005F07DF8A5
:102E80001B2005F096F836E07B681B681E4A9342CB
:102E900016D100233B611B4B1B6C1A4A43F0020303
:102EA0001364184B1B6C03F002033B613B69002267
:102EB00000211D2005F061F81D2005F07AF81AE0C8
:102EC0007B681B68114A934215D10023FB600D4BB0
:102ED0001B6C0C4A43F0100313640A4B1B6C03F089
:102EE0001003FB60FB6800220021362005F045F846
:102EF000362005F05EF800BF1837BD4680BD00BF24
:102F00000000014000380240000400400010004072
:102F100080B485B000AF78607B681B680B4A934231
:102F20000DD10023FB600A4B1B6C094A43F04003A0
:102F30001364074B1B6C03F04003FB60FB6800BF8E
:102F40001437BD465DF8047B704700BF0018004091
:102F50000038024080B58CB000AF786007F11C03E8
:102F600000221A605A609A60DA601A617B681B68F6
:102F7000464A93421FD10023BB61454B1B6B444A19
:102F800043F010031363424B1B6B03F01003BB6150
:102F9000BB694FF4D443FB6102233B6200237B6295
:102FA0000023BB620123FB6207F11C031946394869
:102FB00005F01CFC65E07B681B68374A93423CD1F6
:102FC00000237B61324B1B6B314A43F001031363D7
:102FD0002F4B1B6B03F001037B617B6900233B617B
:102FE0002B4B1B6B2A4A43F002031363284B1B6BCA
:102FF00003F002033B613B69C023FB6102233B6298
:1030000000237B620023BB620223FB6207F11C03E7
:103010001946224805F0EAFB0323FB6102233B62C9
:1030200000237B620023BB620223FB6207F11C03C7
:1030300019461B4805F0DAFB23E07B681B68194A38
:1030400093421ED10023FB60114B1B6B104A43F0CF
:10305000020313630E4B1B6B03F00203FB60FB6860
:103060004FF44043FB6102233B6200237B62002359
:10307000BB620923FB6207F11C031946084805F0EF
:10308000B5FB00BF3037BD4680BD00BF000001402A
:1030900000380240001002400004004000000240DE
:1030A000000402400018004080B500AF114B124AE6
:1030B0001A60104B4FF4E1325A600E4B00229A60B6
:1030C0000C4B0022DA600B4B00221A61094B0C22D8
:1030D0005A61084B00229A61064B0022DA610548CA
:1030E0000AF0C4FB0346002B01D0FFF797FA00BF9C
:1030F00080BD00BF28120020004C004080B500AF0A
:10310000114B124A1A60104B4FF4E1325A600E4BC9
:1031100000229A600C4B0022DA600B4B00221A61ED
:10312000094B0C225A61084B00229A61064B00227F
:10313000DA6105480AF09AFB0346002B01D0FFF73D
:103140006DFA00BF80BD00BF701200200044004037
:1031500080B500AF114B124A1A60104B4FF4164263
:103160005A600E4B00229A600C4B0022DA600B4B27
:1031700000221A61094B0C225A61084B00229A6105
:10318000064B0022DA6105480AF070FB0346002B6B
:1031900001D0FFF743FA00BF80BD00BFB812002086
:1031A0000048004080B500AF114B124A1A60104B26
:1031B0004FF4E1325A600E4B00229A600C4B002211
:1031C000DA600B4B00221A61094B0C225A61084B42
:1031D00000229A61064B0022DA6105480AF046FB9C
:1031E0000346002B01D0FFF719FA00BF80BD00BFD6
:1031F000001300200014014080B590B000AF78604B
:1032000007F12C0300221A605A609A60DA601A6192
:103210007B681B68834A93422CD10023BB62824B9C
:103220001B6C814A43F4002313647F4B1B6C03F433
:103230000023BB62BB6A00237B627B4B1B6B7A4A19
:1032400043F001031363784B1B6B03F001037B62B4
:103250007B6A0323FB6202233B6300237B6303231C
:10326000BB630823FB6307F12C0319466F4805F085
:10327000BDFAD3E07B681B686D4A934234D10023CA
:103280003B62694B1B6C684A43F400331364664B22
:103290001B6C03F400333B623B6A0023FB61624B0F
:1032A0001B6B614A43F0010313635F4B1B6B03F01D
:1032B0000103FB61FB690C23FB6202233B630023D8
:1032C0007B630323BB630723FB6307F12C031946CE
:1032D000564805F08BFA00220021262004F04DFE0E
:1032E000262004F066FE99E07B681B68514A9342F1
:1032F00063D10023BB614C4B1B6C4B4A43F48023CE
:103300001364494B1B6C03F48023BB61BB6900232E
:103310007B61454B1B6B444A43F008031363424BEC
:103320001B6B03F008037B617B694FF44073FB6206
:1033300002233B6300237B630323BB630723FB63FD
:1033400007F12C0319463C4805F050FA3B4B3C4A28
:103350001A603A4B4FF000625A60384B00229A6074
:10336000364B0022DA60354B4FF480621A61334BE2
:1033700000225A61314B00229A61304B0022DA61FF
:103380002E4B00221A622D4B00225A622B4804F069
:103390002BFE0346002B01D0FFF740F97B68274A3C
:1033A000DA63264A7B68936300220021272004F019
:1033B000E4FD272004F0FDFD30E07B681B68214A16
:1033C00093422BD100233B61174B5B6C164A43F0B1
:1033D00020035364144B5B6C03F020033B613B6997
:1033E0000023FB60104B1B6B0F4A43F00403136375
:1033F0000D4B1B6B03F00403FB60FB68C023FB62F7
:1034000002233B6300237B630323BB630823FB632B
:1034100007F12C0319460C4805F0E8F900BF4037C6
:10342000BD4680BD004C0040003802400000024014
:103430000044004000480040000C024048130020B7
:1034400028600240001401400008024080B588B0A6
:1034500004AF78600B46FB707B681868FB789AB203
:103460004FF47A7302930223019307F10C03009344
:103470000123802106F0F2F93B7B1BB21B021AB23A
:103480007B7B1BB213431BB29BB218461037BD4661
:1034900080BD80B588B004AF78600B46FB701346E2
:1034A0003B803B881B0A9BB2DBB23B733B88DBB2A1
:1034B0007B737B681868FB789AB24FF47A73029337
:1034C0000223019307F10C0300930123802106F0EE
:1034D000CBF8034618461037BD4680BD80B584B092
:1034E00000AF786002217868FFF7B0FF0346FB81E8
:1034F000FB89DB089BB29B009BB218461037BD4688
:1035000080BD000080B485B000AFF86087ED020A8E
:10351000C7ED010A1E4B1B78022B1BD0022B2ADCA5
:10352000002B02D0012B04D025E0194B01221A7088
:1035300025E097ED017AD7ED027AB4EEE77AF1EE65
:1035400010FA03DD124B01221A7018E0104B022210
:103550001A7014E097ED017AD7ED027AB4EEE77AAB
:10356000F1EE10FA03DD0A4B01221A7007E0084B56
:1035700002221A7003E0064B00221A7000BF044BAF
:103580001B7818461437BD465DF8047B704700BFB2
:10359000A813002080B582B000AF78604FF40042DD
:1035A00000217868FFF775FF012004F085F900BF5E
:1035B0000837BD4680BD80B582B000AF78600B464D
:1035C0007B807B881A4605217868FFF762FF00BF81
:1035D0000837BD4680BD80B582B000AF78600B462D
:1035E0007B807B881A4600217868FFF752FF00BF76
:1035F0000837BD4680BD000080B584B000AF78605C
:1036000043F69F13FB810C4B4FF480521A800B4BF7
:103610000A221A800A4B02221A80074B1B8819467D
:103620007868FFF7C8FFFB8919467868FFF7D3FF72
:1036300000BF1037BD4680BDAA130020AC13002088
:10364000AE13002080B586B000AFF860B9601346B5
:10365000FB711A4B00221A70FB68BA681A60FB688B
:10366000FA791A71164B00221A80164B00221A8022
:10367000FB799BB25B0099B202230322B86806F083
:103680001FFB0346FB75FB7D002B11D10E4B002267
:103690001A70F7EE000A9FED0D0AF868FFF732FF87
:1036A000F868FFF777FFF868FFF7A6FF012300E04F
:1036B000002318461837BD4680BD00BFA91300205F
:1036C000AC130020AE130020A8130020000000005F
:1036D00080B586B002AF03460A46FB711346BB7144
:1036E000FB793B73BB797B7307F10C026423009376
:1036F0000223A621034805F087FC00BF1037BD4612
:1037000080BD00BF4403002080B586B004AF0346EF
:10371000FB71FB799AB26423029306230193054B54
:1037200000930123A621044806F098F800BF08374B
:10373000BD4680BDB01300204403002080B586B094
:1037400004AF0346FB71FB799AB264230293012311
:103750000193054B00930123A621044806F07EF84F
:1037600000BF0837BD4680BDB613002044030020CB
:1037700080B500AF0020FFF7E1FF01213120FFF706
:10378000A7FF00212D20FFF7A3FF08212D20FFF721
:103790009FFF00BF80BD000080B582B000AF322027
:1037A000FFF7B2FF074B5B781BB21B021AB2054B47
:1037B0001B781BB21343FB80B7F906301846083755
:1037C000BD4680BDB013002080B582B000AF32206E
:1037D000FFF79AFF074BDB781BB21B021AB2054BAF
:1037E0009B781BB21343FB80B7F9063018460837A5
:1037F000BD4680BDB013002080B582B000AF32203E
:10380000FFF782FF074B5B791BB21B021AB2054B15
:103810001B791BB21343FB80B7F9063018460837F3
:10382000BD4680BDB013002080B58AB000AF78607F
:1038300039603B68032B03D97B681B78242B01D0AC
:10384000002367E03A682A217868FCF7C1FCF86138
:10385000FB69002B06D0FB699A1C79683B680B4416
:103860009A4201D3002355E0002387F827307B6874
:1038700001333B6209E03B6A1A7897F827305340DE
:1038800087F827303B6A01333B623A6AFB699A4208
:10389000F1D3FB6901331B78FB76FB7E01331F4AB2
:1038A00013441B7803F00303022B02D1FB7E203B61
:1038B00000E0FB7E7B61FB6902331B78FB74FB7CC1
:1038C0000133164A13441B7803F00303022B02D181
:1038D000FB7C203B00E0FB7CFB607B69402B03DD35
:1038E0007B69373B1A0102E07B69303B1A01FB68B8
:1038F000402B02DDFB68373B01E0FB68303B1344A3
:10390000BB60BB68DBB297F827209A420CBF01234B
:103910000023DBB218462837BD4680BD6889010800
:1039200080B483B000AF7860396002E03B68013B4F
:103930003B603B68002B0DD03B68013B7A68134429
:103940001B780D2BF2D03B68013B7A6813441B783F
:103950000A2BEBD07A683B68134400221A703B684C
:1039600018460C37BD465DF8047B704780B586B0BD
:1039700000AFF8607B600B467B8113463B817A8900
:103980003B899A4201D37B8915E03A897B89D31A16
:10399000FB823A8CFB8A934228BF1346BB827B8909
:1039A000FA681344BA8A7968184611F093FA7A894A
:1039B000BB8A13449BB218461837BD4680BD80B5FC
:1039C00086B002AFF8607B600B467B8113463B817B
:1039D0007868FCF74DFC03469BB23A8979890093DD
:1039E0007B68F868FFF7C2FF034618461037BD46EC
:1039F00080BD000080B58AB000AFF8607B600B46E8
:103A00007B8113463B8107F110030F337B627B6A96
:103A100000221A707B68002BB8BF5B423B62396A98
:103A2000164BA3FB0123DA0813469B0013445B00EB
:103A3000CA1AD3B27A6A013A7A623033DAB27B6A4E
:103A40001A703B6A0D4AA2FB0323DB083B623B6A08
:103A5000002BE4D17B68002B05DA7B6A013B7B629B
:103A60007B6A2D221A703A8979897B6AF868FFF798
:103A7000A6FF034618462837BD4680BDCDCCCCCC2A
:103A8000F0B599B002AF786187ED020B7B600B4611
:103A90007B8213463B827B68002B01DA00237B602C
:103AA0007B68092B01DD09237B6001231E464FF053
:103AB00000024FF00003D7E90201FDF70FF80346BB
:103AC000002B01D100231E46F3B2BB63BB6B002B5E
:103AD00005D0BC68FB6883F00045C7E90245D7E91B
:103AE0000201FDF739F803467B6501233B6500239E
:103AF000FB6408E03A6D13469B0013445B003B6592
:103B0000FB6C0133FB64FA6C7B689A42F2DB786DE4
:103B1000FCF708FD02460B46D7E90201FCF7B4FBAF
:103B200002460B4614461D46386DFCF7EBFC024678
:103B30000B4620462946FCF75FFD02460B46104621
:103B400019464FF000024B4BFCF7A0FB02460B4618
:103B5000C7E90C23D7E90C01FDF726F80346BB643F
:103B6000BA6C3B6D9A4206D3BA6C3B6DD31ABB64F8
:103B70007B6D01337B65BB6B002B07D03A8A798A5A
:103B80003D4B7869FFF71BFF03467B823A8A798AAF
:103B90007B6D7869FFF72EFF03467B827B68002BE5
:103BA00062DD3A8A798A354B7869FFF708FF034668
:103BB0007B827B687B6400233B64BB6C002B23D03F
:103BC0001CE0B96C2E4BA3FB0123DA0813469B00C3
:103BD00013445B00CA1AD2B23B6C591C39643032B0
:103BE000D2B258333B4403F8402CBB6C244AA2FBAE
:103BF0000323DB08BB647B6C013B7B64BB6C002B49
:103C000002D03B6C092BDCDD0023FB6308E007F1ED
:103C10002402FB6B134430221A70FB6B0133FB63ED
:103C2000FA6B7B6C9A42F2DB7B6C9BB207F124004F
:103C30003A8A798A009303467869FFF797FE03462C
:103C40007B820CE007F118023B6C13443A8A798AB4
:103C5000012000907869FFF789FE03467B823B6C68
:103C60005A1E3A64002BEDD17B8A18465C37BD465C
:103C7000F0BD00BF0000E03F5084010854840108FB
:103C8000CDCCCCCC2DE9B0438AB000AF78603960A0
:103C90007B68002B03D07B681B78002B04D14FF08E
:103CA00000024FF000034EE078680FF01FF987ED37
:103CB000060B4FF00002294BD7E90601FCF7C6FDC1
:103CC00002460B4610461946FCF746FF03467B6149
:103CD0007869FCF727FC4FF00002204BFCF78CFCC6
:103CE00002460B46D7E90601FCF7CEFA02460B4620
:103CF000C7E902237869FCF715FC804689464FF036
:103D00000002174BD7E90201FCF7A0FD02460B4663
:103D100040464946FCF7BAFA02460B46C7E9082373
:103D20003B68002B0DD03B681B78532B03D03B68BE
:103D30001B78732B05D13C6A7B6A83F00045C7E989
:103D40000845D7E9082343EC172BB0EE470AF0EEFD
:103D5000670A2837BD46BDE8B08300BF0000594060
:103D600000004E402DE9B0438AB000AF7860396062
:103D70007B68002B03D07B681B78002B04D14FF0AD
:103D800000024FF000034EE078680FF0AFF887EDC7
:103D9000060B4FF00002294BD7E90601FCF756FD50
:103DA00002460B4610461946FCF7D6FE03467B61D9
:103DB0007869FCF7B7FB4FF00002204BFCF71CFCC6
:103DC00002460B46D7E90601FCF75EFA02460B46AF
:103DD000C7E902237869FCF7A5FB804689464FF0C6
:103DE0000002174BD7E90201FCF730FD02460B46F3
:103DF00040464946FCF74AFA02460B46C7E9082303
:103E00003B68002B0DD03B681B78572B03D03B68D9
:103E10001B78772B05D13C6A7B6A83F00045C7E9A4
:103E20000845D7E9082343EC172BB0EE470AF0EE1C
:103E3000670A2837BD46BDE8B08300BF000059407F
:103E400000004E4080B588B000AFF860B9607A607D
:103E50000023FB61FB68BB612A21F86810F068FF52
:103E600078617B69002B19D07B6900221A7015E0FC
:103E7000FB695A1CFA619B00BA681344BA691A605C
:103E80002C21B86910F054FF38613B69002B11D028
:103E90003B6900221A703B690133BB61FA697B6898
:103EA0009A4208DABB69002B05D0BB691B78002B4E
:103EB000DED100E000BF7B69002B02D07B692A22A3
:103EC0001A70FB6918462037BD4680BD80B582B0A8
:103ED00000AF786068220021786810F021FF7B68CD
:103EE0000022DA637B6800221A6479684FF00002CE
:103EF0004FF00003C1E9122379684FF000024FF040
:103F00000003C1E9142300BF0837BD4680BD00008F
:103F100080B5B2B000AF786039607868FCF7A8F976
:103F2000C7F8C400D7F8C430002B00F04B827B6880
:103F30001B78242B40F04682D7F8C4107868FFF72E
:103F400073FC034683F00103DBB2002B40F03A829E
:103F50000622AB49786810F0F8FE0346002B07D024
:103F60000622A849786810F0F0FE0346002B01D124
:103F7000012300E00023C7F8C0300622A249786878
:103F800010F0E3FE0346002B07D006229F49786815
:103F900010F0DBFE0346002B01D1012300E00023DB
:103FA000C7F8BC3006229A49786810F0CEFE034666
:103FB000002B07D006229749786810F0C6FE03460A
:103FC000002B01D1012300E00023C7F8B8302C21D9
:103FD000786810F0ADFEC7F8B400D7F8B430002B05
:103FE00000F0F28107F1080350220021184610F07A
:103FF00097FED7F8B430013307F1080114221846B0
:10400000FFF720FFC7F8B000D7F8C030002B00F052
:10401000B580D7F8B030002B01DDBB6800E000238D
:10402000BB67D7F8B030012B01DDFB6800E000234F
:104030007B67D7F8B030022B01DD3B6900E000233D
:104040003B67D7F8B030032B01DD7B6900E000232C
:10405000FB66D7F8B030042B01DDBB6900E000231C
:10406000BB66D7F8B030052B01DDFB6900E000230B
:104070007B66D7F8B030062B01DD3B6A00E00023F9
:104080003B66D7F8B030072B01DD7B6A00E00023E8
:10409000FB65D7F8B030082B01DDBB6A00E00023D8
:1040A000BB657B6F002B0AD07B6F1B78412B03D045
:1040B0007B6F1B78612B02D13B6801221A70BB6FAA
:1040C000002B0ED0BB6F1B78002B0AD03B682F3320
:1040D0000A22B96F184610F04AFE3B68002283F8A6
:1040E0003920BB6D002B0ED0BB6D1B78002B0AD086
:1040F0003B6828330622B96D184610F038FE3B683D
:10410000002283F82E20F96E386FFFF7BBFDB0EE6A
:10411000407AF0EE607A3B6883ED027B796EB86E90
:10412000FFF720FEB0EE407AF0EE607A3B6883ED58
:10413000047B3B6E002B0DD03B6E1B78002B09D00F
:10414000386E0EF0D3FEB0EE407AF0EE607A3B6847
:1041500083ED067BFB6D002B00F03881FB6D1B7837
:10416000002B00F03381F86D0EF0C0FEB0EE407A07
:10417000F0EE607A3B6883ED087B27E1D7F8BC302E
:10418000002B00F0CF80D7F8B030002B01DDBB68EA
:1041900000E00023C7F8A030D7F8B030012B01DDD4
:1041A000FB6800E00023C7F89C30D7F8B030022B42
:1041B00001DD3B6900E00023C7F89830D7F8B03044
:1041C000032B01DD7B6900E00023C7F89430D7F8AA
:1041D000B030042B01DDBB6900E00023C7F890304C
:1041E000D7F8B030052B01DDFB6900E00023C7F8EC
:1041F0008C30D7F8B030062B0EDD3B6A0DE000BFE7
:1042000058840108608401086884010870840108EA
:1042100078840108808401080023C7F88830D7F823
:10422000B030072B01DD7B6A00E00023C7F8843043
:10423000D7F8B030082B01DDBB6A00E00023C7F8D7
:104240008030D7F8B030092B01DDFB6A00E0002395
:10425000FB67D7F89810D7F89C00FFF713FDB0EE76
:10426000407AF0EE607A3B6883ED027BD7F89010DD
:10427000D7F89400FFF776FDB0EE407AF0EE607A62
:104280003B6883ED047BD7F88C30002B0BD0D7F83C
:104290008C301B78002B06D0D7F88C000EF029FE4E
:1042A00002463B68DA63D7F88830002B0BD0D7F88A
:1042B00088301B78002B06D0D7F888000EF019FE46
:1042C00002463B681A64D7F88430002B0FD0D7F829
:1042D00084301B78002B0AD0D7F884000EF006FE3D
:1042E000B0EE407AF0EE607A3B6883ED127BD7F84F
:1042F0008030002B6CD0FB6F002B69D0FB6F1B78DC
:104300004D2B03D0FB6F1B786D2B61D1D7F880004C
:104310000EF0ECFDB0EE407AF0EE607A3B6883ED93
:10432000147B55E0D7F8B830002B54D0D7F8B03014
:10433000012B01DDFB6800E00023C7F8AC30D7F8A3
:10434000B030022B01DD3B6900E00023C7F8A83044
:10435000D7F8B030032B01DD7B6900E00023C7F8FC
:10436000A430D7F8AC30002B0BD0D7F8AC301B788A
:10437000002B06D0D7F8AC000EF0BBFD02463B6820
:104380009A65D7F8A830002B0BD0D7F8A8301B7847
:10439000002B06D0D7F8A8000EF0ABFD02463B6814
:1043A000DA65D7F8A430002B14D0D7F8A4301B78E6
:1043B000002B0FD0D7F8A4000EF09BFD02463B68FF
:1043C0001A6607E000BF06E000BF04E000BF02E09D
:1043D00000BF00E000BFC837BD4680BD80B596B0C5
:1043E00002AFF8600B467A607B817B891F2B01D876
:1043F00000231EE207F1300300221A605A60C3F85E
:10440000072007F1200300221A605A609A601A738D
:104410007B681B6E002B17DD7B68DB6D002B13DDCB
:104420007B689B6D002B0FDD7B68196E7B68DB6DF5
:104430007A68926D07F13000019200930B465B4A57
:104440000B210FF0BDFB3FE07B6893F82830002B79
:104450003AD07B6893F82830A3F1300213469B00D2
:1044600013445B001A467B6893F82930303B1344B1
:10447000FB647B6893F82A30A3F1300213469B005B
:1044800013445B001A467B6893F82B30303B13448F
:10449000BB647B6893F82C30A3F1300213469B0079
:1044A00013445B001A467B6893F82D30303B13446D
:1044B0007B6407F13000FB6C0193BB6C00937B6C59
:1044C0003B4A0B210FF07CFB7B6893F82F30002BCD
:1044D00050D007F11C0300210A461A800A469A7040
:1044E00007F1180300210A461A800A469A7007F15C
:1044F000100300221A60C3F803207B682F3318468C
:10450000FBF7B6FE38643B6C052B33D97B6893F818
:104510002F303B777B6893F830307B777B6893F85C
:1045200031303B767B6893F832307B767B6893F84A
:1045300033303B747B6893F834307B743B6C062BD0
:1045400009D97B6803F1350107F110030233042216
:10455000184610F00CFC07F11C0207F1200007F1CF
:104560001003019307F1180300931346114A0D211C
:104570000FF026FB0023FB877A89F98F0E4BF86832
:10458000FFF71DFA0346FB877A89F98F0B4BF86812
:10459000FFF715FA0346FB877B681B78002B11D0C9
:1045A0007B68DB6B002B0DDD054B0CE0888401087C
:1045B00098840108AC840108B8840108BC8401080F
:1045C000C88401089D4B7A89F98FF868FFF7F7F9DD
:1045D0000346FB877A89F98F994BF868FFF7EFF963
:1045E0000346FB877A89F98F964BF868FFF7E7F95E
:1045F0000346FB877B68DB6B7A89F98FF868FFF7E6
:10460000F9F90346FB877A89F98F8D4BF868FFF734
:10461000D6F90346FB877A89F98F8B4BF868FFF749
:10462000CEF90346FB877B6893ED027B7A89F98F8D
:104630000823B0EE470AF0EE670AF868FFF720FAA1
:104640000346FB877A89F98F7D4BF868FFF7B7F946
:104650000346FB877A89F98F7C4BF868FFF7AFF93F
:104660000346FB877B6893ED047B7A89F98F0823E7
:10467000B0EE470AF0EE670AF868FFF701FA034662
:10468000FB877A89F98F6E4BF868FFF798F9034634
:10469000FB877A89F98F6E4BF868FFF790F903462C
:1046A000FB877B681B6C7A89F98FF868FFF7A2F9A2
:1046B0000346FB877A89F98F614BF868FFF77FF92A
:1046C0000346FB877A89F98F624BF868FFF777F921
:1046D0000346FB877B6893ED127B7A89F98F02236F
:1046E000B0EE470AF0EE670AF868FFF7C9F903462B
:1046F000FB877A89F98F524BF868FFF760F9034618
:10470000FB877A89F98F544BF868FFF758F903460D
:10471000FB877B6893ED147B7A89F98F0223B0EED7
:10472000470AF0EE670AF868FFF7AAF90346FB8725
:104730007A89F98F424BF868FFF741F90346FB8706
:104740007A89F98F454BF868FFF739F90346FB87FB
:104750007B6893ED067B7A89F98F0223B0EE470AD6
:10476000F0EE670AF868FFF78BF90346FB877A8952
:10477000F98F334BF868FFF722F90346FB877A89F4
:10478000F98F374BF868FFF71AF90346FB877B6808
:1047900093ED087B7A89F98F0223B0EE470AF0EE99
:1047A000670AF868FFF76CF90346FB877A89F98F87
:1047B000234BF868FFF703F90346FB877A89F98FE3
:1047C000284BF868FFF7FBF80346FB8707F1300337
:1047D0007A89F98FF868FFF7F2F80346FB877A8940
:1047E000F98F214BF868FFF7EAF80346FB877A89CF
:1047F000F98F1E4BF868FFF7E2F80346FB8707F1D5
:1048000020037A89F98FF868FFF7D9F80346FB8708
:104810007A89F98F164BF868FFF7D1F80346FB87C2
:104820007A89F98F134BF868FFF7C9F80346FB87BD
:10483000FB8F18465037BD4680BD00BFD0840108AD
:10484000D8840108DC840108E4840108EC840108B0
:10485000F4840108FC84010804850108108501081E
:104860001C8501082C850108388501083C85010854
:10487000488501084C85010880B5ADF5267D00AF5F
:1048800007F52673A3F52573186007F52673A3F5BE
:104890002673196007F52673A3F525731B6893F833
:1048A0000434DBB2012B05D107F52673A3F525737C
:1048B0001B6806E007F52673A3F525731B6803F252
:1048C0000223C7F88C3207F52673A3F525731B68FE
:1048D00093F80434DBB2012B07D107F52673A3F557
:1048E00025731B6803F5007306E007F52673A3F52F
:1048F00025731B6803F20243C7F88832D7F8883261
:104900001B88A7F89632B7F89632B3F5007F03D329
:1049100040F2FF13A7F89632B7F8962207F1740316
:10492000D7F88C12184610F0D5FAB7F8963207F57A
:104930002672A2F509720021D15407F10803184626
:10494000FFF7C4FA07F17403C7F8903269E0D7F8AB
:104950009032C7F880324549D7F8900210F01AFA21
:10496000C7F87C02D7F87C32002B05D0D7F87C2220
:10497000D7F89032D31A04E0D7F89002FBF778FC0E
:104980000346C7F87832D7F89022D7F87832134424
:104990001B7887F87732D7F89022D7F8783213440B
:1049A00000221A70D7F87812D7F88002FEF7B8FF05
:1049B000C7F87802D7F87832002B0BD0D7F88032BE
:1049C0001B78242B06D107F108031946D7F880027B
:1049D000FFF79EFAD7F89022D7F87832134497F869
:1049E00077221A70D7F87C32002B03D0D7F87C32AC
:1049F000013304E0D7F89022D7F878321344C7F88F
:104A0000903204E0D7F890320133C7F89032D7F8EB
:104A100090321B780D2BF5D0D7F890321B780A2BEB
:104A2000F0D0D7F890321B78002B90D107F1080313
:104A30001A464FF40071D7F88C02FFF7CFFC0346FB
:104A4000A7F88632D7F88832B7F886221A8007F599
:104A50002673A3F526731B68B7F886221A80D7F849
:104A60008C32184607F52677BD4680BD5085010873
:104A700080B582B000AF78600B467B807B681B4AB4
:104A800093422ED11A4B1B680133194A1360194BFC
:104A900093F80434DBB2002B0ED17B881A461649FA
:104AA000144810F017FA134B012283F80424114A1A
:104AB0007B88A2F800320DE07B881A460E490F4829
:104AC00010F008FA0B4B002283F80424094A7B8873
:104AD000A2F802344FF400720749044808F0A1FF1D
:104AE00000E000BF0837BD4680BD00BFB8120020FF
:104AF000B8150020BC150020B8130020BE170020F8
:104B000080B500AF0021144807F04EFF0421124881
:104B100007F04AFF0821104807F046FF0C210E4815
:104B200007F042FF00210D4807F03EFF04210B482B
:104B300007F03AFF0821094807F036FF0C21074823
:104B400007F032FF054B1B685A6C044B1B6842F49C
:104B500000425A6400BF80BD98110020501100200F
:104B60002DE9B04F8AB000AF3961FA60BB600346EF
:104B7000FB75FB7D002B00F0E580FB7D042B00F234
:104B8000E180FB7D5A1E1346DB009B1A9B00704A96
:104B900013443B623B6A1B681B68DB6AFB61BB68B2
:104BA000002B28D0FB68642B01D96423FB60FB68D1
:104BB00000229A469346FB6900229846914608FBDC
:104BC0000BF20AFB09F31344AAFB08452B441D46CC
:104BD00014F132033B6045F100037B604FF0640247
:104BE0004FF00003D7E90001FCF74EF802460B46F0
:104BF00013467B6205E0FA68FB69934228BF1346BF
:104C00007B623B6A98683B6A9B890122194604F0E3
:104C100085F83B6A58693B6A1B8B0122194604F0F0
:104C20007DF83B69012B46D13B6A1B69002B05D1FE
:104C30003B6A1B681B6800225A6318E03B6A1B69C9
:104C4000042B05D13B6A1B681A68002393630EE0AE
:104C50003B6A1B69082B05D13B6A1B681A68002355
:104C6000D36304E03B6A1B681A68002313643B6A41
:104C70005B68002B05D13B6A1B681B687A6A5A6324
:104C800061E03B6A5B68042B05D13B6A1B681A68CC
:104C90007B6A936357E03B6A5B68082B05D13B6AEC
:104CA0001B681A687B6AD3634DE03B6A1B681A680D
:104CB0007B6A136447E03B6A5B68002B05D13B6A63
:104CC0001B681B6800225A6318E03B6A5B68042B70
:104CD00005D13B6A1B681A68002393630EE03B6AA8
:104CE0005B68082B05D13B6A1B681A680023D363F5
:104CF00004E03B6A1B681A68002313643B6A1B6963
:104D0000002B05D13B6A1B681B687A6A5A631AE05C
:104D10003B6A1B69042B05D13B6A1B681A687B6AD6
:104D2000936310E03B6A1B69082B05D13B6A1B6843
:104D30001A687B6AD36306E03B6A1B681A687B6A61
:104D4000136400E000BF2837BD46BDE8B08F00BF48
:104D5000B086010880B485B000AF78600B46FB7068
:104D6000FF23FB730023BB7322E0BB7B7A681344F1
:104D70001A78FB7B5340FB7300237B7312E097F997
:104D80000F30002B08DA97F90F305B005BB283F02D
:104D900031035BB2FB7302E0FB7B5B00FB737B7B4D
:104DA00001337B737B7B072BE9D9BB7B0133BB735F
:104DB000BA7BFB789A42D8D3FB7B18461437BD46A2
:104DC0005DF8047B704780B485B000AF7860002345
:104DD000FB607B681B781A06FB681343FB607B68EB
:104DE00001331B781A04FB681343FB607B680233B2
:104DF0001B781A02FB681343FB607B6803331B7844
:104E00001A46FB681343FB60FB68BB60BB6807EE98
:104E1000903AB0EE670A1437BD465DF8047B7047E0
:104E200080B586B002AF786040F2D343BB8107F112
:104E30000C02642300930223D221786804F0E4F882
:104E40000346002B01D0012303E0642002F034FD6F
:104E5000002318461037BD4680BD80B586B002AF2E
:104E6000786000233B7210237B720323BB72002304
:104E7000FB7207F10803023302211846FFF76AFFAD
:104E800003463B7307F10802642300930523D221F4
:104E9000786804F0B9F8034618461037BD4680BD5F
:104EA00080B586B002AF786040F20223BB8107F183
:104EB0000C02642300930223D221786804F0A4F842
:104EC0000346002B01D0002313E007F108026423FE
:104ED00000930323D221786804F094F90346002B51
:104EE00001D0002305E07B7A012B01D1012300E0F2
:104EF000002318461037BD4680BD90B599B002AF6B
:104F0000786039600323A7F8483007F1480264232A
:104F100000930223D221786804F076F80346002B30
:104F200001D0012371E007F10C024FF4FA730093F2
:104F30003C23D221786804F065F90346002B01D0A8
:104F4000012362E03B683B6500237B6559E07A6D95
:104F500013465B0013445B00FB6407F10C02FB6C1F
:104F6000134402211846FFF7F5FE03461A46FB6C70
:104F7000023358333B4413F84C3C9A4201D001238E
:104F800043E0FB6C033307F10C0213440221184683
:104F9000FFF7E0FE03461A46FB6C053358333B44EB
:104FA00013F84C3C9A4201D001232EE007F10C0289
:104FB000FB6C13441B783B72FB6C013358333B444E
:104FC00013F84C3C7B72FB6C033358333B4413F8AF
:104FD0004C3CBB72FB6C043358333B4413F84C3CE1
:104FE000FB727B6D9B003A6DD41807F108031846DD
:104FF000FFF7E9FEF0EE407AC4ED007A7B6D0133F5
:105000007B657B6D092BA2DD002318465C37BD460E
:1050100090BD80B584B000AF7860786800F000F98A
:105020000346FB7397F90F30002B20D179687B681A
:105030000122D02000F0B0F80346FB7397F90F303F
:10504000002B14D17B681B78612B0ED1786802F09D
:1050500052F80346FB7397F90F30002B07D178689D
:1050600001F03AFF0346FB7301E0FD23FB7397F960
:105070000F3018461037BD4680BDB0B58AB000AFBE
:10508000F860B9607A603B6007F1100300221A6093
:105090005A609A60DA601A61386801F0FBFC0346D6
:1050A00087F8273097F92730002B6CD1FB68002B4D
:1050B00069D0BB68002B66D07B68002B5DD07B6815
:1050C0000A2B5AD80023BB8434E03B681B7B002B9F
:1050D00018D1BB8CFA6813441B783968184601F064
:1050E00018FC034687F82730BB8CFA6813441A78FB
:1050F000BB8C5B0002F07F02D2B228333B4403F842
:10510000182C09E0BB8CFA681A44BB8C5B0012783F
:1051100028333B4403F8182CBB8CBA681A44BB8C68
:105120005B000133127828333B4403F8182CBB8C06
:105130000133BB84BB8C7A689A42C6D897F9273072
:10514000002B1ED13B685C6C387C7B685B005A1E70
:105150003B685D6807F11003591C2B46A0470346C6
:105160001A463B6883F84C203B6893F94C30002B7F
:1051700007D0FE2387F8273003E0FC2387F8273089
:1051800004E000BF02E0FF2387F8273097F92730BB
:1051900018462837BD46B0BD90B587B000AFB9609E
:1051A0007A603B600346FB73386801F073FC03468A
:1051B000FB7597F91730002B2AD1BB68002B27D03D
:1051C0003B681B7B002B0ED1FB7B3968184601F036
:1051D000A0FB0346FB7597F91730002B03D1FB7B2F
:1051E00063F07F03FB733B681C6C3B685B68F87B78
:1051F0007A68B968A04703461A463B6883F84C2092
:105200003B6893F94C30002B04D0FE23FB7501E082
:10521000FF23FB7597F9173018461C37BD4690BD24
:1052200080B584B000AF7860E023BB73B6237B7396
:10523000786801F02FFC0346FB7397F90F30002BC1
:105240002BD17B681B7B002B04D1786801F0C6FB57
:105250000346FB7397F90F30002B1ED107F10D01A8
:1052600007F10E007B680122FFF707FF0346FB737F
:105270007B689B6C7A685268114642F210709847BE
:1052800097F90F30002B08D17B681B7B002B04D1D2
:10529000786801F0A3FB0346FB7397F90F301846BB
:1052A0001037BD4680BD000080B588B000AF786083
:1052B00039600023BB7701237B777F4A07F1140312
:1052C00092E8030018600433197007F10C03002200
:1052D0001A601A7107F11C033968184600F04FF97B
:1052E0000346FB7797F91F30002B05D13968002062
:1052F00000F0E4F80346FB777B68002B02D1FF2324
:10530000FB77B7E097F91F30002B40F0B380387D72
:1053100007F10C013B680522FFF73EFF0346FB77D0
:105320003B68002283F84D2097F91F30002B08D1ED
:105330007B6803333A680721184601F07EFB034679
:10534000FB7797F91F30002B08D17B6801333A684F
:105350000521184601F071FB0346FB7797F91F30D2
:10536000002B08D17B6802333A680521184601F00A
:1053700064FB0346FB7797F91F30002B07D17B684E
:105380003A680521184601F058FB0346FB7797F968
:105390001F30002B08D17B6804333A680821184677
:1053A00001F04BFB0346FB7797F91F30002B61D1CF
:1053B0003B7C5BB223F01C035AB27B68DB785BB2A8
:1053C0009B005BB203F01C035BB213435BB2DBB226
:1053D0003B74FB7B5BB203F01F035AB27B685B78C4
:1053E0005BB25B015BB213435BB2DBB2FB73FB7B73
:1053F0005BB223F01C035AB27B689B785BB29B00C4
:105400005BB203F01C035BB213435BB2DBB2FB7312
:105410007B7B5BB223F007035AB27B681B785BB2DD
:1054200003F007035BB213435BB2DBB27B737B68B1
:105430001B79082B04D07B681B79BB7700237B7713
:105440003B7C5BB203F01F035AB297F91E305B013D
:105450005BB213435BB2DBB23B743B7B5BB203F0EA
:105460007F035AB297F91D30DB015BB213435BB285
:10547000DBB23B7397F91F30002B09D107F10C0108
:1054800007F114003B680522FFF7F7FD0346FB77A1
:105490003B7F002B0AD097F91F30002B06D13B7FB2
:1054A0003968184600F00AF80346FB7797F91F3071
:1054B00018462037BD4680BD5485010880B584B0AC
:1054C00000AF03463960FB710023BB7374233B7349
:1054D00007F10D013B6801227420FFF75DFE0346D2
:1054E000FB7397F90F30002B1DD17B7B03F0030377
:1054F000BB73BB7B002B16D07B7B23F00303DBB29B
:105500007B7307F10D0107F10C003B680122FFF7E7
:10551000B4FD0346FB733B689B6C3A6852681146C6
:1055200042F210709847BB7B002B03D097F90F30E5
:10553000002BCDD0FB79002B1BD097F90F30002B1F
:1055400017D17B7B5BB223F003035AB297F9073084
:1055500003F003035BB213435BB2DBB27B7307F16F
:105560000D0107F10C003B680122FFF786FD0346A1
:10557000FB7397F90F3018461037BD4680BD80B5D4
:1055800084B000AF786039607B68002B0FD007F1E2
:105590000E013B6801227420FFF7FEFD0346FB73FA
:1055A000BB7B03F00303DAB27B681A7001E0FF23D0
:1055B000FB7397F90F3018461037BD4680BD0000C9
:1055C00080B58AB000AF0346B9607A60FB730023F0
:1055D0003B62344A07F1140392E803001860043375
:1055E0001980BB68002B58D0BB6801337A6805214D
:1055F000184601F022FA034687F8273097F927303A
:10560000002B09D1BB6802337A680521184601F0E6
:1056100014FA034687F8273097F92730002B08D172
:10562000BB687A680521184601F007FA034687F837
:10563000273097F92730002B2FD1BB685B782833B0
:105640003B4413F8143CFB61BB689B7828333B4414
:1056500013F8143C1A46FB691344FB61BB681B78C2
:1056600028333B4413F8143C1A46FB691344FB618E
:10567000FB6940F2AB7202FB03F33B623B6A03F24D
:1056800074733B623B6A03F651133B62FB7B022B54
:1056900003D03B6A03F57A733B623B6A18462837AE
:1056A000BD4680BD5C850108B0B59EB000AFB96055
:1056B0007A603B600346FB73002387F87630002353
:1056C00087F87530002387F8743007F168030022EB
:1056D0001A605A609A6007F1140354220021184698
:1056E0000FF01EFB07F11403BB6607F114031C3314
:1056F000FB6607F1140338333B67386801F0CAF9D9
:10570000034687F8773097F97730002B40F0C18057
:10571000BB68002B00F0BD80FB7B012B1CD13A68DD
:10572000B968002000F08DFD034687F8773097F9BF
:105730007730002B40F0A180BB681B785BB2002B58
:1057400003DA012387F8743097E0002387F8743078
:10575000022387F8773090E0FB7B022B03D0FB7BA2
:10576000032B40F0878007F168033968184600F082
:10577000ABFE034687F87730002387F874300023A8
:1057800087F8763014E097F876309B0078333B4406
:1057900053F8103C1B785BB2002B04DA97F8743096
:1057A000013387F8743097F87630013387F8763014
:1057B00097F87630022B03D897F97730002BE2D098
:1057C000002387F876301CE097F87630013387F8AD
:1057D00075300DE007F1680297F8751097F876308C
:1057E000184601F0FFFA97F87530013387F87530E5
:1057F00097F87530022BEDD997F87630013387F89A
:10580000763097F87630012B03D897F97730002B54
:10581000DAD0002387F876301CE097F876309B00CA
:1058200078333B4453F8101C97F876201346DB007E
:105830009B1A9B001A46BB6813441C460D460FCDAD
:105840000FC495E8070084E8070097F87630013325
:1058500087F8763097F87630022B03D897F97730AF
:10586000002BDAD097F87430002B06D1022387F88A
:10587000773002E0012387F877307B68002B03D173
:10588000FF2387F8773007E07B6897F874201A7059
:1058900002E0FF2387F8773097F97730184678379A
:1058A000BD46B0BD80B588B000AF0346B9607A6030
:1058B000FB7300233B7700237B7747F27013BB8297
:1058C000BB68002B70D079680020FFF7F7FD034616
:1058D000FB7797F91F30002B08D107F11C02F97BE9
:1058E0007B68B86801F0F5F80346FB7797F91F303D
:1058F000002B5BD107F118017B6802227020FFF7B3
:105900004BFC0346FB7797F91F30002B4ED1BB6849
:105910001B78012B0BD10023BB777B689B68012B85
:1059200002D102237B7706E001237B7703E001238A
:10593000BB7700237B773B7E5BB223F008035AB230
:1059400097F91E30DB005BB203F008035BB2134330
:105950005BB2DBB23B767B7E5BB223F00F035AB2C5
:105960003B7F5BB203F00F035BB213435BB2DBB26E
:105970007B767B7E5BB223F030035AB297F91D3001
:105980001B015BB203F030035BB213435BB2DBB2CB
:105990007B7607F1180107F114007B680222FFF7FC
:1059A0006CFB0346FB7701E0FF23FB7797F91F3081
:1059B00018462037BD4680BD80B487B000AF786000
:1059C00039607B6807EE903AF8EE677ADFED386A67
:1059D00087EEA67A3B68DB8B07EE903AF8EE676AB3
:1059E0009FED346AC6EE867A37EE677A3B68B3F984
:1059F000203007EE903AF8EEE77A67EE277AC7EDA7
:105A0000057A7B6807EE903AF8EE677ADFED2A6A4E
:105A100087EEA67A3B68DB8B07EE903AF8EE676A72
:105A20009FED266AC6EE867A37EE677A7B6807EEC8
:105A3000903AF8EE677A9FED206AC7EE866A3B6877
:105A4000DB8B07EE903AB8EE676ADFED1C5AC6EEC4
:105A5000257A76EEE77A27EE277A3B6893F92230AB
:105A600007EE903AF8EEE77AF3EE006A67EEA67A70
:105A700067EE277AC7ED047A97ED057AD7ED047AB9
:105A800077EE277A3B68C3ED0E7A3B6893ED0E7A8A
:105A9000DFED0B6AC7EE267AC7ED037AFB6807EEE7
:105AA000903AB0EE670A1C37BD465DF8047B70473C
:105AB00000008046000080440000004800000046CE
:105AC0000000A04580B487B000AF786039603B68C3
:105AD00093ED0E7AF0EE006AC7EE267A9FED8E7A8D
