:020000040800F2
:100000000000022039880008D92A0008E12A0008E7
:10001000E92A0008F12A0008F92A00080000000077
:10002000000000000000000000000000012B00089C
:100030000F2B0008000000001D2B00082B2B0008D0
:10004000898800088988000889880008898800084C
:100050008988000889880008372B000889880008EB
:1000600089880008452B0008532B00088988000860
:10007000612B0008898800088988000889880008A1
:10008000898800088988000889880008898800080C
:10009000898800088988000889880008752B00086D
:1000A000992B0008AD2B0008C12B0008D52B0008A8
:1000B00089880008E92B00088988000889880008D9
:1000C00089880008898800088988000889880008CC
:1000D0008988000889880008FD2B0008112C000879
:1000E000252C00088988000889880008898800086C
:1000F000898800088988000889880008898800089C
:10010000898800088988000889880008898800088B
:10011000898800088988000889880008898800087B
:10012000898800088988000889880008898800086B
:10013000898800088988000889880008898800085B
:10014000898800088988000889880008452C0008EB
:10015000898800088988000889880008898800083B
:10016000898800088988000889880008898800082B
:100170008988000889880008898800080000000034
:08018000898800088988000845
:1001900010B5054C237833B9044B13B10448AFF3C1
:1001A00000800123237010BDE80200200000000041
:1001B0004891010808B5034B1BB103490348AFF34D
:1001C000008008BD00000000EC02002048910108FA
:1001D00001F0FF01102A2BDB10F0070F08D010F8F8
:1001E000013B013A8B422DD010F0070F42B3F6D1FC
:1001F000F0B441EA012141EA014122F007047FF015
:1002000000070023F0E80256083C85EA010586EA6B
:10021000010685FA47F5A3FA87F586FA47F6A5FAA7
:1002200087F68EB9EED1F0BC01F0FF0102F00702B3
:1002300032B110F8013B013A83EA010313B1F8D15E
:100240000020704701387047002D06BF354603383F
:10025000073815F0010F07D1013015F4807F02BF78
:10026000013015F4C03F0130F0BC0138704700BFC9
:10027000034613F8012B002AFBD1181A01387047E6
:1002800081F0004102E000BF83F0004330B54FEA47
:1002900041044FEA430594EA050F08BF90EA020FB4
:1002A0001FBF54EA000C55EA020C7FEA645C7FEA47
:1002B000655C00F0E2804FEA5454D4EB5555B8BF6A
:1002C0006D420CDD2C4480EA020281EA030382EADB
:1002D000000083EA010180EA020281EA0303362D6D
:1002E00088BF30BD11F0004F4FEA01314FF4801C40
:1002F0004CEA113102D0404261EB410113F0004F52
:100300004FEA03334CEA133302D0524263EB430308
:1003100094EA050F00F0A780A4F10104D5F1200EA6
:100320000DDB02FA0EFC22FA05F2801841F1000101
:1003300003FA0EF2801843FA05F359410EE0A5F1D5
:1003400020050EF1200E012A03FA0EFC28BF4CF006
:10035000020C43FA05F3C01851EBE37101F00045BC
:1003600007D54FF0000EDCF1000C7EEB00006EEBC9
:100370000101B1F5801F1BD3B1F5001F0CD3490853
:100380005FEA30004FEA3C0C04F101044FEA4452AA
:1003900012F5800F80F09A80BCF1004F08BF5FEA31
:1003A000500C50F1000041EB045141EA050130BD11
:1003B0005FEA4C0C404141EB0101013C28BFB1F523
:1003C000801FE9D291F0000F04BF01460020B1FA6E
:1003D00081F308BF2033A3F10B03B3F120020CDA41
:1003E0000C3208DD02F1140CC2F10C0201FA0CF01F
:1003F00021FA02F10CE002F11402D8BFC2F1200C84
:1004000001FA02F120FA0CFCDCBF41EA0C01904039
:10041000E41AA2BF01EB0451294330BD6FEA040482
:100420001F3C1CDA0C340EDC04F11404C4F120026D
:1004300020FA04F001FA02F340EA030021FA04F37F
:1004400045EA030130BDC4F10C04C4F1200220FAD6
:1004500002F001FA04F340EA0300294630BD21FA14
:1004600004F0294630BD94F0000F83F4801306BFDA
:1004700081F480110134013D4EE77FEA645C18BFCE
:100480007FEA655C29D094EA050F08BF90EA020F65
:1004900005D054EA000C04BF1946104630BD91EA5D
:1004A000030F1EBF0021002030BD5FEA545C05D160
:1004B0004000494128BF41F0004130BD14F580049F
:1004C0003CBF01F5801130BD01F0004545F0FE4113
:1004D00041F470014FF0000030BD7FEA645C1ABF48
:1004E000194610467FEA655C1CBF0B46024650EA7F
:1004F000013406BF52EA033591EA030F41F40021AB
:1005000030BD00BF90F0000F04BF0021704730B530
:100510004FF4806404F132044FF000054FF0000105
:1005200050E700BF90F0000F04BF0021704730B5C6
:100530004FF4806404F1320410F0004548BF40429B
:100540004FF000013EE700BF42004FEAE2014FEAF0
:1005500031014FEA02701FBF12F07F4393F07F4FCB
:1005600081F06051704732F07F4208BF704793F0CE
:100570007F4F04BF41F40021704730B54FF46074E1
:1005800001F0004521F000411CE700BF50EA0102E4
:1005900008BF704730B54FF000050AE050EA01028D
:1005A00008BF704730B511F0004502D5404261EBFD
:1005B00041014FF4806404F132045FEA915C3FF43E
:1005C000D8AE4FF003025FEADC0C18BF03325FEADB
:1005D000DC0C18BF033202EBDC02C2F1200300FA8C
:1005E00003FC20FA02F001FA03FE40EA0E0021FAB1
:1005F00002F11444BDE600BF70B54FF0FF0C4CF49F
:10060000E06C1CEA11541DBF1CEA135594EA0C0F50
:1006100095EA0C0F00F0DEF82C4481EA030621EA8B
:100620004C5123EA4C5350EA013518BF52EA0335C6
:1006300041F4801143F4801338D0A0FB02CE4FF078
:100640000005E1FB02E506F00042E0FB03E54FF0A8
:100650000006E1FB03569CF0000F18BF4EF0010EA0
:10066000A4F1FF04B6F5007F64F5407404D25FEA9C
:100670004E0E6D4146EB060642EAC62141EA55514F
:100680004FEAC52040EA5E504FEACE2EB4F1FD0C91
:1006900088BFBCF5E06F1ED8BEF1004F08BF5FEA0F
:1006A000500E50F1000041EB045170BD06F00046C1
:1006B00046EA010140EA020081EA0301B4EB5C046E
:1006C000C2BFD4EB0C0541EA045170BD41F4801166
:1006D0004FF0000E013C00F3AB8014F1360FDEBF8B
:1006E000002001F0004170BDC4F10004203C35DA67
:1006F0000C341BDC04F11404C4F1200500FA05F3EA
:1007000020FA04F001FA05F240EA020001F000428A
:1007100021F0004110EBD37021FA04F642EB060100
:100720005EEA430E08BF20EAD37070BDC4F10C042A
:10073000C4F1200500FA04F320FA05F001FA04F2EE
:1007400040EA020001F0004110EBD37041F10001DA
:100750005EEA430E08BF20EAD37070BDC4F12005E5
:1007600000FA05F24EEA020E20FA04F301FA05F24D
:1007700043EA020321FA04F001F0004121FA04F2F5
:1007800020EA020000EBD3705EEA430E08BF20EAC5
:10079000D37070BD94F0000F0FD101F000464000FF
:1007A00041EB010111F4801F08BF013CF7D041EA81
:1007B000060195F0000F18BF704703F00046520085
:1007C00043EB030313F4801F08BF013DF7D043EA56
:1007D0000603704794EA0C0F0CEA135518BF95EA0C
:1007E0000C0F0CD050EA410618BF52EA4306D1D193
:1007F00081EA030101F000414FF0000070BD50EAB2
:10080000410606BF1046194652EA430619D094EA3B
:100810000C0F02D150EA013613D195EA0C0F05D125
:1008200052EA03361CBF104619460AD181EA030179
:1008300001F0004141F0FE4141F470014FF0000031
:1008400070BD41F0FE4141F4780170BD70B54FF0CC
:10085000FF0C4CF4E06C1CEA11541DBF1CEA13554C
:1008600094EA0C0F95EA0C0F00F0A7F8A4EB05042E
:1008700081EA030E52EA03354FEA013100F0888025
:100880004FEA03334FF0805545EA131343EA1263EE
:100890004FEA022245EA111545EA10654FEA0026A3
:1008A0000EF000419D4208BF964244F1FD0404F55C
:1008B000407402D25B084FEA3202B61A65EB0305B8
:1008C0005B084FEA32024FF480104FF4002CB6EB75
:1008D000020E75EB030E22BFB61A754640EA0C00F5
:1008E0005B084FEA3202B6EB020E75EB030E22BF35
:1008F000B61A754640EA5C005B084FEA3202B6EB76
:10090000020E75EB030E22BFB61A754640EA9C0034
:100910005B084FEA3202B6EB020E75EB030E22BF04
:10092000B61A754640EADC0055EA060E18D04FEAC2
:10093000051545EA16754FEA06164FEAC30343EA62
:1009400052734FEAC2025FEA1C1CC0D111F4801F2F
:100950000BD141EA00014FF000004FF0004CB6E728
:1009600011F4801F04BF01430020B4F1FD0C88BFC7
:10097000BCF5E06F3FF6AFAEB5EB030C04BFB6EBD2
:10098000020C5FEA500C50F1000041EB045170BDC5
:100990000EF0004E4EEA113114EB5C04C2BFD4EBF2
:1009A0000C0541EA045170BD41F480114FF0000E76
:1009B000013C90E645EA060E8DE60CEA135594EAF2
:1009C0000C0F08BF95EA0C0F3FF43BAF94EA0C0FF5
:1009D0000AD150EA01347FF434AF95EA0C0F7FF46A
:1009E00025AF104619462CE795EA0C0F06D152EABE
:1009F00003353FF4FDAE1046194622E750EA4106A2
:100A000018BF52EA43067FF4C5AE50EA41047FF4B2
:100A10000DAF52EA43057FF4EBAE12E74FF0FF3C17
:100A200006E000BF4FF0010C02E000BF4FF0010CE8
:100A30004DF804CD4FEA410C7FEA6C5C4FEA430C61
:100A400018BF7FEA6C5C1BD001B050EA410C0CBFB0
:100A500052EA430C91EA030F02BF90EA020F002012
:100A6000704710F1000F91EA030F58BF994208BF79
:100A700090422CBFD8176FEAE37040F00100704736
:100A80004FEA410C7FEA6C5C02D150EA013C07D18D
:100A90004FEA430C7FEA6C5CD6D152EA033CD3D0D8
:100AA0005DF8040B704700BF8446104662468C46D2
:100AB0001946634600E000BF01B5FFF7B7FF002805
:100AC00048BF10F1000F01BD4DF808EDFFF7F4FF2E
:100AD0000CBF012000205DF808FB00BF4DF808EDB9
:100AE000FFF7EAFF34BF012000205DF808FB00BFDC
:100AF0004DF808EDFFF7E0FF94BF012000205DF8FE
:100B000008FB00BF4DF808EDFFF7CEFF94BF0120B2
:100B100000205DF808FB00BF4DF808EDFFF7C4FFAB
:100B200034BF012000205DF808FB00BF4FEA410CF4
:100B30007FEA6C5C02D150EA013C0AD14FEA430CD7
:100B40007FEA6C5C02D152EA033C02D14FF0000014
:100B500070474FF0010070474FEA410212F5001252
:100B600015D211D56FF47873B3EB625212D94FEAF4
:100B7000C12343F0004343EA505311F0004F23FADE
:100B800002F018BF404270474FF00000704750EA33
:100B9000013005D111F0004008BF6FF000407047F0
:100BA0004FF00000704700BF4A0011D212F500124A
:100BB00011D20DD56FF47873B3EB62520ED44FEAB5
:100BC000C12343F0004343EA505323FA02F0704735
:100BD0004FF00000704750EA013002D14FF0FF3073
:100BE00070474FF0000070474FEA4102B2F1E04316
:100BF00024BFB3F5001CDCF1FE5C0DD901F0004C04
:100C00004FEAC0024CEA5070B2F1004F40EB830053
:100C100008BF20F00100704711F0804F21D113F17F
:100C20003872BCBF01F00040704741F480114FEAB8
:100C30005252C2F11802C2F1200C10FA0CF320FA41
:100C400002F018BF40F001004FEAC1234FEAD3235E
:100C500003FA0CFC40EA0C0023FA02F34FEA4303C8
:100C6000CCE77FEA625307D150EA01331EBF4FF051
:100C7000FE4040F44000704701F0004040F0FE406C
:100C800040F40000704700BF53B94AB9002908BFBB
:100C900000281CBF4FF0FF314FF0FF3000F0BEB90D
:100CA000ADF1080C6DE904CE00F03CF8DDF804E08D
:100CB000DDE9022304B0704738B500220023044662
:100CC0000D46FFF70BFF28B920462946BDE83840FE
:100CD00000F00AB8204605F1004100F005F8404256
:100CE00061EB410138BD00BFD0B50C4B0022064678
:100CF0000F46FFF781FCFFF757FF0446FFF702FCA2
:100D0000074B0022FFF778FC02460B463046394677
:100D1000FFF7BAFAFFF748FF2146D0BD0000F03DCB
:100D20000000F0412DE9F047089D8E4604468846B4
:100D3000002B4AD18A42174662D9B2FA82F64EB1E6
:100D4000C6F1200301FA06F820FA03F3B74043EA9C
:100D50000808B4404FEA174E1FFA87FCB8FBFEF1B3
:100D6000230C0EFB118843EA084301FB0CF29A4264
:100D700009D9FB1801F1FF3080F0EA809A4240F275
:100D8000E78002393B449A1AA3B2B2FBFEF00EFB95
:100D9000102243EA024300FB0CFC9C4509D9FB18D6
:100DA00000F1FF3280F0D6809C4540F2D3803B4476
:100DB000023840EA0140A3EB0C0300211DB1F340CF
:100DC0000022C5E90032BDE8F0878B4205D90DB19C
:100DD000C5E9000100210846F5E7B3FA83F10029CF
:100DE00046D1734502D3824200F20581841A6EEB2C
:100DF000030201209046002DE5D0C5E90048E2E756
:100E0000002A00F09080B2FA82F6002E40F0A48012
:100E10008A1A030C4FEA174E80B2BCB20121B2FB12
:100E2000FEFC0EFB1C2243EA024304FB0CF29A4236
:100E300007D9FB180CF1FF3802D29A4200F2E08089
:100E4000C4469B1AB3FBFEF20EFB123340EA034387
:100E500002FB04F49C4207D9FB1802F1FF3002D2D6
:100E60009C4200F2CA8002461B1B42EA0C40A5E7E6
:100E7000C1F120068B4022FA06F71F430EFA01F457
:100E800020FA06F32EFA06FE4FEA1749234300FA2A
:100E900001F81FFA87FCBEFBF9F01C0C09FB10EEF1
:100EA00044EA0E4400FB0CFEA64502FA01F209D901
:100EB0003C1900F1FF3A80F09C80A64540F29980F1
:100EC00002383C44A4EB0E041FFA83FEB4FBF9F392
:100ED00009FB13444EEA044403FB0CFCA44508D967
:100EE0003C1903F1FF3E80F08280A4457FD9023B8C
:100EF0003C4443EA0040A4EB0C04A0FB02EC644534
:100F00007346E14662D35FD05DB1B8EB030264EB98
:100F1000090404FA06F622FA01F31E43CC40C5E99F
:100F2000006400214FE7B1FBF2FC010C41EA0E41E5
:100F300080B240EA01423B4638463C46B846BE468F
:100F40002026B1FBF7F1A2EB080241EA0C4166E76B
:100F5000014618E710462CE7C6F120022EFA02F3EC
:100F6000B740B14020FA02F24FEA174E0A43B3FBF2
:100F7000FEF8BCB20EFB1833110C41EA034108FB2A
:100F800004F9B04089454FEA104380B23ED9791840
:100F900008F1FF3C01D289451FD8A1EB0901B1FB43
:100FA000FEF909FB04F80EFB191192B242EA014264
:100FB000424529D2BA1809F1FF31C4D24245C2D202
:100FC000A9F102013A44BEE7F0459DD2BEEB02030F
:100FD0006CEB070C0138E14696E7A7EB0909494499
:100FE000A8F1020CB1FBFEF909FB04F8DBE773463C
:100FF0007FE7504666E70846FDE63B44023A33E7A2
:10100000ACF1020C3B441CE749469CE7A1EB09010B
:10101000C446B1FBFEF909FB04F8C4E7704700BF02
:1010200080B584B000AF3B4600221A605A609A60D7
:10103000DA60214B214A1A601F4B4FF480325A600C
:101040001D4B00229A601C4B00221A611A4B002291
:101050001A76194B002283F82020174B0022DA62FF
:10106000154B174A9A62144B0022DA60124B012288
:10107000DA61114B002283F830200F4B01225A61B4
:101080000D4807F099FC0346002B01D001F058FCF5
:101090000C233B6001237B600023BB603B46194669
:1010A000054807F0CDFC0346002B01D001F048FCB9
:1010B00000BF1037BD4680BD040300200020014062
:1010C0000100000F80B58AB000AF786007F114030B
:1010D00000221A605A609A60DA601A617B681B68A5
:1010E000174A934227D100233B61164B5B6C154A8C
:1010F00043F480735364134B5B6C03F480733B6164
:101100003B690023FB600F4B1B6B0E4A43F004034B
:1011100013630C4B1B6B03F00403FB60FB6804239D
:101120007B610323BB610023FB6107F114031946B4
:10113000054808F0B7FB00BF2837BD4680BD00BF9B
:1011400000200140003802400008024080B582B013
:1011500000AF00237B600C4B1B6B0B4A43F4001366
:101160001363094B1B6B03F400137B607B68002245
:1011700000210C2007F05DFF0C2007F076FF00BF78
:101180000837BD4680BD00BF0038024080B58CB036
:1011900000AF07F11C0300221A605A609A60DA60FF
:1011A0001A610023BB61944B1B6B934A43F01003FD
:1011B0001363914B1B6B03F01003BB61BB690023EE
:1011C0007B618D4B1B6B8C4A43F0040313638A4B8A
:1011D0001B6B03F004037B617B6900233B61864B3F
:1011E0001B6B854A43F080031363834B1B6B03F037
:1011F00080033B613B690023FB607F4B1B6B7E4A96
:1012000043F0010313637C4B1B6B03F00103FB6092
:10121000FB680023BB60784B1B6B774A43F00203EB
:101220001363754B1B6B03F00203BB60BB680023A9
:101230007B60714B1B6B704A43F0080313636E4B6A
:101240001B6B03F008037B607B68002248F25C01A3
:101250006A4808F0BFFD002242F20801684808F021
:10126000B9FD00221021674808F0B4FD00224FF4B8
:101270004051654808F0AEFD00224FF60241634838
:1012800008F0A8FD48F25C03FB6101233B620023E8
:101290007B620023BB6207F11C031946574808F024
:1012A00001FB42F20803FB6101233B6200237B62E6
:1012B0000023BB6207F11C031946514808F0F2FAFB
:1012C0000223FB614FF488133B6200237B6207F12A
:1012D0001C0319464A4808F0E5FA1023FB61012374
:1012E0003B6200237B620023BB6207F11C031946AB
:1012F000444808F0D7FA4FF40363FB614FF48813B6
:101300003B6202237B6207F11C0319463C4808F04C
:10131000C9FA4FF4AC53FB614FF488133B620223CC
:101320007B6207F11C031946344808F0BBFA4FF4FE
:101330004053FB6101233B6200237B620023BB62BD
:1013400007F11C031946304808F0ACFA4FF6024387
:10135000FB6101233B6200237B620023BB6207F138
:101360001C031946294808F09DFA0123FB614FF43C
:1013700088133B6202237B6207F11C031946234852
:1013800008F090FA4823FB614FF488133B62002376
:101390007B6207F11C0319461C4808F083FA0022FF
:1013A0000021062007F045FE062007F05EFE002221
:1013B0000021092007F03DFE092007F056FE00221B
:1013C00000210A2007F035FE0A2007F04EFE002219
:1013D0000021172007F02DFE172007F046FE0022FF
:1013E0000021282007F025FE282007F03EFE00BF40
:1013F0003037BD4680BD00BF0038024000100240BB
:10140000000802400000024000040240000C0240BC
:1014100080B500AF124B134A1A60114B124A5A6042
:101420000F4B00229A600E4B0022DA600C4B4FF4F7
:1014300080421A610A4B00225A61094B00229A61CC
:10144000074B0022DA61064B00221A62044808F0BA
:10145000F3FC0346002B01D001F072FA00BF80BDFF
:101460004C03002000540040A086010080B500AF6E
:10147000124B134A1A60114B124A5A600F4B00224A
:101480009A600E4B0022DA600C4B4FF480421A61D6
:101490000A4B00225A61094B00229A61074B002235
:1014A000DA61064B00221A62044808F0C5FC0346C4
:1014B000002B01D001F044FA00BF80BDA003002042
:1014C00000580040A086010080B500AF124B134ABF
:1014D0001A60114B124A5A600F4B00229A600E4B51
:1014E0000022DA600C4B4FF480421A610A4B002252
:1014F0005A61094B00229A61074B0022DA61064BC0
:1015000000221A62044808F097FC0346002B01D021
:1015100001F016FA00BF80BDF4030020005C00401B
:10152000A086010080B58EB000AF786007F124037B
:1015300000221A605A609A60DA601A617B681B6840
:101540005B4A93422CD100233B625A4B1B6B594A96
:1015500043F002031363574B1B6B03F002033B6220
:101560003B6AC0237B621223BB620023FB6203231E
:101570003B6304237B6307F1240319464E4808F0BC
:1015800091F90023FB614B4B1B6C4A4A43F4001357
:101590001364484B1B6C03F40013FB61FB6983E08D
:1015A0007B681B68454A93422DD10023BB61414BA8
:1015B0001B6B404A43F0020313633E4B1B6B03F06B
:1015C0000203BB61BB694FF440637B621223BB62C1
:1015D0000023FB6203233B6304237B6307F12403A3
:1015E0001946354808F05EF900237B61314B1B6CCE
:1015F000304A43F4800313642E4B1B6C03F48003C6
:101600007B617B6950E07B681B682D4A93424BD11C
:1016100000233B61274B1B6B264A43F004031363F3
:10162000244B1B6B03F004033B613B690023FB600D
:10163000204B1B6B1F4A43F0010313631D4B1B6BB5
:1016400003F00103FB60FB684FF400737B6212231D
:10165000BB620123FB6203233B6304237B6307F12B
:1016600024031946174808F01DF94FF480737B6274
:101670001223BB620123FB6203233B6304237B63CE
:1016800007F124031946104808F00CF90023BB6049
:10169000084B1B6C074A43F400031364054B1B6C97
:1016A00003F40003BB60BB6800BF3837BD4680BD94
:1016B000005400400038024000040240005800403E
:1016C000005C0040000802400000024080B582B08B
:1016D00000AF78607B681B68204A93420ED1204B94
:1016E0001B6C1F4A23F40013136440211D4808F0AB
:1016F00075FA80211B4808F071FA2AE07B681B68A4
:10170000194A934210D1164B1B6C154A23F48003DF
:1017100013644FF48061134808F060FA4FF40061DD
:10172000104808F05BFA14E07B681B680F4A93428C
:101730000FD10B4B1B6C0A4A23F4000313644FF4C4
:1017400000710B4808F04AFA4FF48071094808F01C
:1017500045FA00BF0837BD4680BD00BF00540040B9
:10176000003802400004024000580040005C004085
:10177000000802400000024080B483B000AF4FF088
:1017800000037B6000233B6015E0114A3B689B002F
:101790001344D3ED007A97ED017AB4EEE77AF1EED7
:1017A00010FA05D50A4A3B689B0013441B687B600E
:1017B0003B6801333B603B68632BE6DD7B6807EEEB
:1017C000903AB0EE670A0C37BD465DF8047B70476F
:1017D0005411002080B48BB000AF87ED010A9FED5B
:1017E0004F7AD7ED017AF4EEC77AF1EE10FA08DB02
:1017F000DFED4B7AFCEEE77AC7ED007A3B78DBB29F
:1018000086E010233B623B6A013B464ADB001344FF
:10181000D3ED007A97ED017AB4EEE77AF1EE10FAA3
:101820000ED83B6A013B3F4ADB0013440433D3ED3F
:10183000007AFCEEE77AC7ED007A3B78DBB267E02E
:1018400000237B625EE0374A7B6ADB001344D3ED02
:10185000007A97ED017AB4EEE77AF1EE10FA4ED8FD
:101860007B6A01332F4ADB001344D3ED007A97EDF6
:10187000017AB4EEE77AF1EE10FA40DB294A7B6A8E
:10188000DB0013441B68FB617B6A0133254ADB00E4
:1018900013441B68BB61234A7B6ADB001344043397
:1018A0001B687B617B6A01331E4ADB0013440433EF
:1018B0001B683B6197ED017AD7ED067A37EE677AC0
:1018C000D7ED056AD7ED047A76EEE77A67EE276AF8
:1018D00097ED077AD7ED067A37EE677AC6EE877A04
:1018E00097ED047A77EE277AC7ED037AD7ED037A7E
:1018F000FCEEE77AC7ED007A3B78DBB208E07B6A62
:1019000001337B623B6A013B7A6A9A429BDB00238C
:1019100018462C37BD465DF8047B70479A9969419B
:101920000000C842889D010880B584B000AFF8600F
:10193000B9607A607B689AB26423B96803480DF095
:1019400071F87B6818461037BD4680BD68140020CA
:1019500080B592B000AF00237B645EE17B6C013305
:101960007B644FF48061B34811F006FF03467B8728
:10197000B14B1B881A467B8F1344B3F5006F17DAFF
:10198000AD4B1B881A46AD4B13447A8FA9491846B4
:1019900014F02CFBA84B1A887B8F13449AB2A64BE9
:1019A0001A80A54B1B881A46A44B002199542BE1A1
:1019B000A14B00221A80A24814F01CFA24E17B6B90
:1019C00000221A709D4B3B639E49386B14F07FFADE
:1019D0000346002B07D09C4B02221A709B4B4FF002
:1019E0007E521A6041E09A49386B14F070FA03464F
:1019F000002B06D0944B01221A70944B954A1A6022
:101A000033E09549386B14F062FA0346002B06D098
:101A10008D4B03221A708D4B904A1A6025E0904935
:101A2000386B14F054FA0346002B1ED0864B00226C
:101A30001A70864B4FF000021A6001230022012128
:101A4000012004F0C1F8012300220121022004F04A
:101A5000BBF8012300220121032004F0B5F8012383
:101A600000220121042004F0AFF8774B1B78002BF3
:101A700000F087804FF000037B604FF000033B6075
:101A80003B463A1D7749386B13F07EF90346022B2B
:101A900077D16E4BD3ED007A9FED737A67EE877A3C
:101AA000C7ED0B7AD7ED017A97ED0B7A67EE277ABF
:101AB000C7ED0A7AD7ED007A97ED0B7A67EE277AB1
:101AC000C7ED097A97ED0A7AD7ED097A77EE677A4A
:101AD000C7ED087A97ED0A7AD7ED097A77EE277A7B
:101AE000C7ED077AD7ED087AF5EEC07AF1EE10FA75
:101AF00001DB012301E04FF0FF33BB61D7ED077A33
:101B0000F5EEC07AF1EE10FA01DB012301E04FF0AF
:101B1000FF337B61D7ED087AF0EEE77AFCEEE77AE7
:101B200017EE903A3B64D7ED077AF0EEE77AFCEED9
:101B3000E77A17EE903AFB633B6C642B01D9642380
:101B40003B64FB6B642B01D96423FB63BB69594283
:101B500001233A6C012004F037F8BB695942012394
:101B60003A6C042004F030F87B6959420123FA6B87
:101B7000032004F029F80123FA6B7969022004F0AC
:101B800023F80023BB6007F108031A463749386B76
:101B900013F0FAF80346012B09D007F108031A469F
:101BA0003349386B13F0F0F80346012B0DD1BB68B5
:101BB000642B01DD6423BB60BB68002B01DA0023CA
:101BC000BB60BB68DAB22B4B1A707B6B1B4A9B1A4B
:101BD00001333B61184B1B881A463B69D31AFB60E3
:101BE000FB68002B06DD7B6B0133FA68194613484E
:101BF00014F008F9FB689AB20F4B1A800E4B1B8841
:101C00001A460E4B002199540A210C4814F01CF975
:101C100078637B6B002B7FF4D2AE11F071FD03462D
:101C2000002B03D07B6C042B7FF798AE00BF4837A6
:101C3000BD4680BDF00400203C1100203C0900207E
:101C400060910108809101083E11002040110020A0
:101C5000889101083333333F90910108CDCCCC3EBD
:101C6000949101089C9101080000C842A8910108C4
:101C7000B4910108380900202DE9F04FADF57B7DC6
:101C80002CAF06F003FE00F0ADFD07F52E73002229
:101C90001A605A609A60DA601A610023C7F8B43299
:101CA000C24B1B6BC14A43F001031363BF4B1B6B59
:101CB00003F00103C7F8B432D7F8B4324FF48053BD
:101CC000C7F8B8321123C7F8BC320223C7F8C032B4
:101CD0000023C7F8C43207F52E731946B44807F03D
:101CE000E1FD00224FF48051B14808F073F84FF441
:101CF0007A7006F03DFE4FF48051AD4807F06EFF5C
:101D0000FFF744FAFFF722FAFFF782FBFFF7AEFB7B
:101D100001F034FB01F086FBFFF782F9FFF7D4FBFB
:101D200000F014FE01F054F801F016F901F050FB38
:101D300001F0A2FB01F0A8F911F09CFB03F014FFE5
:101D40009C480BF0FDFD4FF400729B499B480CF042
:101D5000F4FE9B4814F04EF89A4814F04BF86423B4
:101D600005225021984809F037F80346002B58D136
:101D7000964A07F52B7392E8030018600433198024
:101D800002330A0C1A7007F52B7393E8030002F074
:101D9000EDF807F52B7393E8030002F0E7F88C4B9E
:101DA0001B78012B1BD18B4814F024F802F064FA45
:101DB000894814F01FF807F52573184602F06EF9EC
:101DC00007F5257216230021002002F02FFB83481F
:101DD00014F010F84FF47A7006F0CAFDFAE707F530
:101DE000257216230021002002F086FB97F894321A
:101DF000FF2B07D197F89532FF2B03D1784813F0CA
:101E0000F9FF07E007F52573184602F077F97548E2
:101E100013F0F0FF744B00221A70744813F0EAFFBD
:101E200005E0734813F0E6FF6F4BFF221A7071480C
:101E300013F0E0FF402264496F4802F0E3FC0346E0
:101E4000002B09D06D4813F0D5FF6B4802F0B4FCAD
:101E50006B4B01221A7027E06A4813F0CBFF684BE6
:101E600000221A70684813F0C5FF4023A7F83633E4
:101E700016E0B7F836335B0099B264230322524868
:101E800008F0AAFF0346002B05D1B7F836331946F0
:101E90005E4813F047FFB7F836330133A7F83633FF
:101EA000B7F836334F2BE4D9594813F0A3FF46490E
:101EB000584806F091F9034687F8EB3297F9EB3270
:101EC000002B06D1544813F095FF544B01221A7091
:101ED00008E097F9EB321946514813F023FF4F4BB6
:101EE00000221A704F4813F085FF374804F0C5F8F8
:101EF000642006F03DFD344803F0C6FF0346002B86
:101F00000CD1494813F076FF2F4803F0DAFF474B16
:101F100001221A70642006F02BFD05E0444813F0FE
:101F200069FF424B00221A700023C7F830330023A8
:101F3000C7F82C33002387F82B330023C7F824334A
:101F40004FF00003C7F820333A4BC7F8E4320123BF
:101F500087F81F330023C7F81833FFF7F9FC364B17
:101F60001B68D7F818239A427CD0334B1B68C7F8FC
:101F700018330023A7F8923207F2922319462F480C
:101F800003F0AEFCC7F8E002B7F89232002B69D03C
:101F9000B7F89232B3F5007F52D2B7F892321A46B0
:101FA000D7F8E032134400221A704FE000380240A4
:101FB00000000240F0080020A8150020B014002006
:101FC000C0910108D8910108F4030020A4960108EB
:101FD00049110020F091010834920108589201083B
:101FE000AC920108F89201080C000020249301082B
:101FF000389301085C9301084C1100207893010884
:10200000481100208C930108A4930108D49301087F
:1020100018940108480400203C9401080D00002099
:102020005494010870940108889401080E0000205F
:102030009C9401080AD7A33CA8170020AC170020E5
:10204000D7F8E03203F2FF1300221A7011F07CFB84
:102050000346002B06D1B7F892321946D7F8E002B2
:1020600011F0EAFAB14B1B68002B00F0228106F058
:1020700073FC0246AE4B1B68D21AAC4B1B684FF484
:102080007A71B1FBF3F39A42C0F01381A94B93F933
:102090000030002B03D17F21A74801F0A9FBA64BFC
:1020A0001B681846FEF750FAC7E92201A24B5B688D
:1020B0001846FEF749FAC7E920019F4B9B6818466E
:1020C000FEF742FAC7E91E019B4BDB681846FEF794
:1020D0003BFAC7E91C01984B1B691846FEF734FA16
:1020E000C7E91A01944B5B691846FEF72DFAC7E958
:1020F0001801914B9B691846FEF726FAC7E91601AD
:102100008D4BDB691846FEF71FFAC7E914018A4BAD
:102110001B6A1846FEF718FAC7E91201864B5B6A7C
:102120001846FEF711FAC7E91001834B9B6A18465F
:10213000FEF70AFAC7E90E017F4BDB6A1846FEF785
:1021400003FAC7E90C017C4B1B6B1846FEF7FCF940
:10215000C7E90A01784B5B6B1846FEF7F5F9C7E94A
:102160000801754B9B6B1846FEF7EEF9C7E90601AF
:10217000714BDB6B1846FEF7E7F9C7E904016E4BBC
:102180001B6C1846FEF7E0F9C7E902016A4B5B6C6D
:102190001846FEF7D9F9C7E90001674B9B6C184652
:1021A000FEF7D2F982468B46634BDB6C1846FEF78E
:1021B000CBF980468946604B1B6D1846FEF7C4F983
:1021C00004460D465C4B5B6D1846FEF7BDF90246B2
:1021D0000B4607F19000CDE92A23CDE92845CDE94A
:1021E0002689CDE924AB97ED007B8DED227B97ED21
:1021F000027B8DED207B97ED047B8DED1E7B97EDB3
:10220000067B8DED1C7B97ED087B8DED1A7B97EDA2
:102210000A7B8DED187B97ED0C7B8DED167B97ED92
:102220000E7B8DED147B97ED107B8DED127B97ED82
:10223000127B8DED107B97ED147B8DED0E7B97ED72
:10224000167B8DED0C7B97ED187B8DED0A7B97ED62
:102250001A7B8DED087B97ED1C7B8DED067B97ED52
:102260001E7B8DED047B97ED207B8DED027B97ED42
:10227000227B8DED007B314A4FF4007112F02CFD72
:10228000C7F8DC02D7F8DC32002B12DD11F05CFA63
:102290000346002B0DD1D7F8DC329AB207F1900338
:1022A0001146184611F0C8F906F056FB0346204ABD
:1022B000136006F051FB0246D7F83033D31A632B74
:1022C00012D906F049FBC7F830031D4B93F90030D3
:1022D000012B09D11B4803F017FE0346002B03D046
:1022E0001949184803F03DFE184B93F90030012BB3
:1022F00042D197F82B33002B2AD106F02DFB024652
:10230000D7F82C33D31A40F6B732934220D906F0CF
:1023100023FBC7F82C0305F0ABFF05F0B5FF034620
:10232000C7F82433012387F82B3325E0040000206D
:10233000900400200C00002098040020B0940108B4
:102340000E000020F4030020640400200D00002093
:1023500097F82B33002B0FD006F0FEFA0246D7F881
:102360002C33D31AD7F824239A4205D89C4805F079
:10237000B1FF002387F82B339A4B1B68002B72D0D8
:1023800006F0EAFA0246984B1B68D21A954B1B6876
:102390004FF47A71B1FBF3F39A4264D34FF0000328
:1023A000C7F814334FF00003C7F810334FF00003A1
:1023B000C7F80C334FF00003C7F808338B4B93F981
:1023C0000030012B0FD18A4B1B68C7F81433884BA0
:1023D0005B68C7F81033864B9B68C7F80C33844B97
:1023E000DB68C7F80833D7F81403FEF7ADF80446E6
:1023F0000D46D7F81003FEF7A7F880468946D7F8B0
:102400000C03FEF7A1F882468B46D7F80803FEF7C7
:102410009BF802460B4607F19000CDE90623CDE973
:1024200004ABCDE90289CDE90045724A4FF48071D1
:1024300012F052FCC7F8D802D7F8D832002B12DDC0
:1024400011F082F90346002B0DD1D7F8D8329AB299
:1024500007F190031146184611F0EEF806F07CFAE9
:102460000346614A1360644B1B68002B65D006F07D
:1024700073FA0246614B1B68D21A5F4B1B684FF41C
:102480007A71B1FBF3F39A4257D34FF00003C7F8C8
:1024900004334FF00003C7F800334FF00003C7F8D0
:1024A000FC32574B93F90030012B0FD106F07EF927
:1024B00007EE900AF8EEE77AC7EDC17A484BDB6881
:1024C000C7F80033464B5B69C7F8FC32D7F8040302
:1024D000FEF73AF804460D46D7F80003FEF734F845
:1024E00080468946D7F8FC02FEF72EF802460B46D6
:1024F00007F19000CDE90423CDE90289CDE900453B
:10250000404A802112F0E8FBC7F8D402D7F8D43251
:10251000002B12DD11F018F90346002B0DD1D7F86E
:10252000D4329AB207F190031146184611F084F89C
:1025300006F012FA0346314A136006F00DFA02461D
:10254000314B1B68D31AB3F5FA6FFFF406AD11F0E7
:10255000FBF80346002B7FF400AD4FF00003C7F8F3
:10256000F8320023A7F8F632284B1B78012B13D141
:10257000274802F06BF8034607EE903AB8EEE77A88
:10258000DFED246AC7EE267AC7EDBE7A204802F056
:1025900081F80346A7F8F632B7F9F632002B05DAD0
:1025A000B7F8F6325B429BB2A7F8F63297F81F33C2
:1025B000002B07D0D7F8F832C7F82033002387F86C
:1025C0001F3342E0D7EDBE7AB7EE007AF4EEC77A59
:1025D000F1EE10FA20D5D7F8F832C7F8203334E0FE
:1025E0004804002008000020940400200E00002071
:1025F00064040020D4950108000000208C04002011
:102600000D000020149601084411002048110020FC
:102610004C11002000007A44B7F9F632B3F5967FEA
:1026200013DA97EDB97AD7EDBE7A27EE277AF7EE6F
:10263000006AD7EDB97A76EEE76AD7EDC87A66EE2A
:10264000A77A77EE277AC7EDC87A06F085F90246B1
:10265000554B1B68D31AB3F57A7F1CD3534B1B78A9
:10266000534A9B001344D7F820231A604F4B1B7822
:102670000133504A82FB03125111DA178A1A64217E
:1026800001FB02F29A1AD2B2484B1A7006F064F9B2
:102690000346454A1360464BD3ED007AF5EE407A87
:1026A000F1EE10FA1DD1D7EDC87AB1EE047AF4EE4E
:1026B000C77AF1EE10FA14DD0023C7F8F0320CE00F
:1026C0003B4AD7F8F0329B001344D7F820231A6016
:1026D000D7F8F0320133C7F8F032D7F8F032632B75
:1026E000EEDDFFF749F887EDB40A97EDB40AFFF77E
:1026F00071F8034687F8CF322F4BC7F8EC322F4BD7
:102700001B78012B03D12E4BC7F8EC320EE02B4B7C
:102710001B78022B03D12B4BC7F8EC3206E0274B7A
:102720001B78032B02D1284BC7F8EC32D7F8F802FC
:10273000FDF70AFF02460B4697F8CF12234890F99F
:10274000000000280CBF01200020C0B20446204831
:1027500090F9000005461F4890F9000006461E4803
:10276000007807F1900C0690059604950394029169
:10277000CDE90023D7F8EC221849604612F0E2FABE
:1027800007F190031846FDF773FD03469AB207F16F
:1027900090031146184610F04FFF06F0DDF803468F
:1027A0000F4A1360FFF7D9BBE8120020E4120020A3
:1027B000541100201F85EB51949101083E11002017
:1027C0008891010880910108909101080C00002077
:1027D0000D0000200E000020481100204496010842
:1027E0004411002080B594B000AF07F120033022DF
:1027F0000021184613F020FB07F10C0300221A6099
:102800005A609A60DA601A610023BB60284B1B6C27
:10281000274A43F080531364254B1B6C03F080530D
:10282000BB60BB6800237B60224B1B68214A43F4DA
:10283000804313601F4B1B6803F480437B607B68FD
:1028400001233B624FF480337B620223BB634FF46E
:102850008003FB6319233B644FF4A8737B6402235A
:10286000BB640723FB6407F1200318460AF038FB1A
:102870000346002B01D000F063F80F23FB60022316
:102880003B6100237B614FF4A053BB614FF4805345
:10289000FB6107F10C03052118460AF099FD034678
:1028A000002B01D000F04CF800BF5037BD4680BD72
:1028B000003802400070004080B483B000AF03468F
:1028C000FB8000BF0C37BD465DF8047B70470000FD
:1028D00080B582B000AF78607B681B68144A934271
:1028E00021D1144B1B78DBB20133DAB2114B1A70D1
:1028F000104B1B78DBB2632B02D90E4B00221A70EF
:102900000C4B1B78DAB20C4B1B78DBB29A4205D227
:1029100001220821094807F05DFA04E0002208219D
:10292000064807F057FA00BF0837BD4680BD00BF14
:102930000010004039090020380900200010024032
:1029400080B400AF72B600BF00BFFDE780B500AF36
:10295000174B184A1A60164B4FF482725A60144B88
:1029600000229A60124B0022DA60114B00221A6199
:102970000F4B00225A610E4B4FF400729A610C4BC0
:102980000022DA610A4B00221A62094B00225A62C5
:10299000074B00229A62064B0A22DA6204480AF0C8
:1029A000F7FE0346002B01D0FFF7CAFF00BF80BD32
:1029B000EC1200200030014080B58AB000AF786092
:1029C00007F1140300221A605A609A60DA601A61F3
:1029D0007B681B68284A934249D100233B61274BFF
:1029E0005B6C264A43F480535364244B5B6C03F4C2
:1029F00080533B613B690023FB60204B1B6B1F4AEC
:102A000043F0010313631D4B1B6B03F00103FB60D9
:102A1000FB680023BB60194B1B6B184A43F0020391
:102A20001363164B1B6B03F00203BB60BB682023D0
:102A30007B610223BB610023FB6103233B6205230F
:102A40007B6207F1140319460D4806F02BFF302373
:102A50007B610223BB610023FB6103233B620523EF
:102A60007B6207F114031946064806F01BFF00BFFE
:102A70002837BD4680BD00BF00300140003802400D
:102A8000000002400004024080B483B000AF002385
:102A90007B60104B5B6C0F4A43F4804353640D4BD7
:102AA0005B6C03F480437B607B6800233B60094BD5
:102AB0001B6C084A43F080531364064B1B6C03F0F5
:102AC00080533B603B6800BF0C37BD465DF8047B1C
:102AD000704700BF0038024080B400AF00BFFDE780
:102AE00080B400AF00BFFDE780B400AF00BFFDE7DA
:102AF00080B400AF00BFFDE780B400AF00BFFDE7CA
:102B000080B400AF00BFBD465DF8047B704780B461
:102B100000AF00BFBD465DF8047B704780B400AFD6
:102B200000BFBD465DF8047B704780B500AF05F07F
:102B3000FFFE00BF80BD80B500AF012007F064F943
:102B400000BF80BD80B500AF082007F05DF900BF71
:102B500080BD80B500AF102007F056F900BF80BDE2
:102B600080B500AF024806F033FC00BF80BD00BF57
:102B70004015002080B500AF202007F045F9402027
:102B800007F042F9802007F03FF94FF4807007F01A
:102B90003BF900BF80BD000080B500AF02480BF0DC
:102BA00057F800BF80BD00BF4813002080B500AFBC
:102BB00002480BF04DF800BF80BD00BF4813002055
:102BC00080B500AF02480BF043F800BF80BD00BFE6
:102BD0004813002080B500AF02480BF039F800BF61
:102BE00080BD00BF4813002080B500AF02480BF045
:102BF0002FF800BF80BD00BF9013002080B500AF4C
:102C000002480BF0F3FF00BF80BD00BF6814002036
:102C100080B500AF02480BF0E9FF00BF80BD00BFE8
:102C2000B014002080B500AF4FF4806007F0ECF8DE
:102C30004FF4006007F0E8F84FF4805007F0E4F834
:102C400000BF80BD80B500AF024809F03BF800BF6F
:102C500080BD00BF2839002080B400AF0123184692
:102C6000BD465DF8047B704780B582B000AF7860E8
:102C7000396013F079F9034616221A604FF0FF33DA
:102C800018460837BD4680BD80B582B000AF786079
:102C90004FF0FF317868FFF7E7FF00BFFDE780B531
:102CA00086B000AFF860B9607A6000237B610AE00B
:102CB000AFF300800146BB685A1CBA60CAB21A70F2
:102CC0007B6901337B617A697B689A42F0DB7B68C0
:102CD00018461837BD4680BD80B483B000AF786019
:102CE0004FF0FF3318460C37BD465DF8047B704744
:102CF00080B483B000AF786039603B684FF4005215
:102D00005A60002318460C37BD465DF8047B7047B7
:102D100080B483B000AF7860012318460C37BD46FD
:102D20005DF8047B704780B485B000AFF860B9608F
:102D30007A60002318461437BD465DF8047B70475F
:102D400080B586B000AF7860144A154BD31A7B610A
:102D50007B693B61134B1B68002B02D1114B124A5C
:102D60001A60104B1A687B6813443A699A4207D27A
:102D700013F0FAF803460C221A604FF0FF3309E013
:102D8000084B1B68FB60074B1A687B681344054AB5
:102D90001360FB6818461837BD4680BD000002204E
:102DA00000040000441300207841002080B400AFEC
:102DB000064BD3F88830054A43F47003C2F88830D4
:102DC00000BFBD465DF8047B704700BF00ED00E02A
:102DD00080B596B000AF07F1480300221A605A6030
:102DE0009A60DA6007F1400300221A605A6007F126
:102DF000240300221A605A609A60DA601A615A61EC
:102E00009A613B1D20220021184613F015F8504B03
:102E1000504A1A604E4B44F620625A604C4B0022D6
:102E20009A604B4B6422DA60494B00221A61484B8E
:102E300000225A61464B00229A6145480AF031FD52
:102E40000346002B01D0FFF77BFD4FF48053BB649A
:102E500007F1480319463E480BF0ACF80346002B37
:102E600001D0FFF76DFD3A480AF0DAFD0346002B6A
:102E700001D0FFF765FD00233B6400237B6407F16D
:102E80004003194632480BF09BFC0346002B01D04F
:102E9000FFF756FD60237B620023BB620023FB62C9
:102EA00000233B6300237B630023BB630023FB639E
:102EB00007F124030022194625480AF0B9FF03460A
:102EC000002B01D0FFF73CFD07F124030422194633
:102ED0001F480AF0ADFF0346002B01D0FFF730FD7D
:102EE00007F124030822194619480AF0A1FF0346F6
:102EF000002B01D0FFF724FD07F124030C22194613
:102F000013480AF095FF0346002B01D0FFF718FD88
:102F100000237B600023BB600023FB6000233B6138
:102F200000237B614FF40053BB6100233B623B1DD8
:102F3000194607480BF0C0FC0346002B01D0FFF7F1
:102F4000FFFC034800F070F900BF5837BD4680BD54
:102F5000481300200000014080B58EB000AF07F19B
:102F6000280300221A605A609A60DA6007F1200391
:102F700000221A605A603B1D00221A605A609A6053
:102F8000DA601A615A619A613D4B3E4A1A603C4BC5
:102F900044F620625A603A4B00229A60384B642211
:102FA000DA60374B00221A61354B00229A613448AF
:102FB0000AF077FC0346002B01D0FFF7C1FC4FF469
:102FC0008053BB6207F1280319462D480AF0F2FF2F
:102FD0000346002B01D0FFF7B3FC29480AF020FD7F
:102FE0000346002B01D0FFF7ABFC00233B6200231C
:102FF0007B6207F12003194621480BF0E1FB0346F1
:10300000002B01D0FFF79CFC60237B600023BB609A
:103010000023FB6000237B613B1D002219461848FA
:103020000AF006FF0346002B01D0FFF789FC3B1D89
:103030000422194612480AF0FBFE0346002B01D079
:10304000FFF77EFC3B1D082219460D480AF0F0FEF2
:103050000346002B01D0FFF773FC3B1D0C221946E1
:1030600007480AF0E5FE0346002B01D0FFF768FC95
:10307000034800F0D9F800BF3837BD4680BD00BF17
:10308000901300200004004080B588B000AF3B1DC5
:1030900000221A605A609A60DA601A615A619A6175
:1030A0001F4B204A1A601E4B00225A601C4B002204
:1030B0009A601B4B4FF6FF72DA60194B00221A61BF
:1030C000174B00229A6116480AF0AAFC0346002B0F
:1030D00001D0FFF735FC60237B600023BB60002339
:1030E000FB6000237B613B1D002219460C480AF05F
:1030F0009FFE0346002B01D0FFF722FC3B1D04225C
:10310000194607480AF094FE0346002B01D0FFF74A
:1031100017FC034800F088F800BF2037BD4680BD8B
:10312000D81300200018004080B584B000AF78604C
:103130007B681B68284A93422ED10023FB60274BF3
:103140005B6C264A43F001035364244B5B6C03F031
:103150000103FB60FB6800220021182005F069FFD5
:10316000182005F082FF00220021192005F061FFE0
:10317000192005F07AFF002200211A2005F059FFDE
:103180001A2005F072FF002200211B2005F051FFDC
:103190001B2005F06AFF1AE07B681B68104A934207
:1031A00015D10023BB600D4B1B6C0C4A43F002038E
:1031B00013640A4B1B6C03F00203BB60BB68002264
:1031C00000211D2005F035FF1D2005F04EFF00BF3A
:1031D0001037BD4680BD00BF0000014000380240EE
:1031E0000004004080B485B000AF78607B681B6845
:1031F0000B4A93420DD10023FB600A4B1B6C094A1A
:1032000043F040031364074B1B6C03F04003FB6067
:10321000FB6800BF1437BD465DF8047B704700BFF4
:10322000001800400038024080B58CB000AF7860D4
:1032300007F11C0300221A605A609A60DA601A6172
:103240007B681B68464A93421FD10023BB61454BF4
:103250001B6B444A43F010031363424B1B6B03F098
:103260001003BB61BB694FF4D443FB6102233B6293
:1032700000237B620023BB620123FB6207F11C0376
:103280001946394806F00EFB65E07B681B68374A33
:1032900093423CD100237B61324B1B6B314A43F09C
:1032A000010313632F4B1B6B03F001037B617B69ED
:1032B00000233B612B4B1B6B2A4A43F00203136331
:1032C000284B1B6B03F002033B613B69C023FB618E
:1032D00002233B6200237B620023BB620223FB626A
:1032E00007F11C031946224806F0DCFA0323FB61B0
:1032F00002233B6200237B620023BB620223FB624A
:1033000007F11C0319461B4806F0CCFA23E07B6842
:103310001B68194A93421ED10023FB60114B1B6BA3
:10332000104A43F0020313630E4B1B6B03F00203BE
:10333000FB60FB684FF44043FB6102233B620023C8
:103340007B620023BB620923FB6207F11C03194661
:10335000084806F0A7FA00BF3037BD4680BD00BF61
:10336000000001400038024000100240000400400C
:1033700000000240000402400018004080B500AF89
:10338000114B124A1A60104B4FF4E1325A600E4B47
:1033900000229A600C4B0022DA600B4B00221A616B
:1033A000094B0C225A61084B00229A61064B0022FD
:1033B000DA6105480BF0E6FA0346002B01D0FFF76F
:1033C000BFFA00BF80BD00BF20140020004C0040A9
:1033D00080B500AF114B124A1A60104B4FF4E13226
:1033E0005A600E4B00229A600C4B0022DA600B4BA5
:1033F00000221A61094B0C225A61084B00229A6183
:10340000064B0022DA6105480BF0BCFA0346002B9C
:1034100001D0FFF795FA00BF80BD00BF68140020FF
:103420000044004080B500AF114B124A1A60104BA7
:103430004FF416425A600E4B00229A600C4B002249
:10344000DA600B4B00221A61094B0C225A61084BBF
:1034500000229A61064B0022DA6105480BF092FACD
:103460000346002B01D0FFF76BFA00BF80BD00BF01
:10347000B01400200048004080B500AF114B124A44
:103480001A60104B4FF4E1325A600E4B00229A60E2
:103490000C4B0022DA600B4B00221A61094B0C2204
:1034A0005A61084B00229A61064B0022DA610548F6
:1034B0000BF068FA0346002B01D0FFF741FA00BF7A
:1034C00080BD00BFF81400200014014080B590B00A
:1034D00000AF786007F12C0300221A605A609A60EE
:1034E000DA601A617B681B68834A93422CD10023FF
:1034F000BB62824B1B6C814A43F4002313647F4BF5
:103500001B6C03F40023BB62BB6A00237B627B4B12
:103510001B6B7A4A43F001031363784B1B6B03F078
:1035200001037B627B6A0323FB6202233B6300236C
:103530007B630323BB630823FB6307F12C0319465A
:103540006F4806F0AFF9D3E07B681B686D4A934281
:1035500034D100233B62694B1B6C684A43F400334F
:103560001364664B1B6C03F400333B623B6A00231D
:10357000FB61624B1B6B614A43F0010313635F4BBA
:103580001B6B03F00103FB61FB690C23FB6202234D
:103590003B6300237B630323BB630723FB6307F1C8
:1035A0002C031946564806F07DF9002200212620FA
:1035B00005F03FFD262005F058FD99E07B681B686B
:1035C000514A934263D10023BB614C4B1B6C4B4A65
:1035D00043F480231364494B1B6C03F48023BB61C9
:1035E000BB6900237B61454B1B6B444A43F00803D6
:1035F0001363424B1B6B03F008037B617B694FF441
:103600004073FB6202233B6300237B630323BB63A2
:103610000723FB6307F12C0319463C4806F042F9E7
:103620003B4B3C4A1A603A4B4FF000625A60384BB1
:1036300000229A60364B0022DA60354B4FF48062EC
:103640001A61334B00225A61314B00229A61304B90
:103650000022DA612E4B00221A622D4B00225A62A0
:103660002B4805F01DFD0346002B01D0FFF768F93C
:103670007B68274ADA63264A7B689363002200212D
:10368000272005F0D6FC272005F0EFFC30E07B6812
:103690001B68214A93422BD100233B61174B5B6C83
:1036A000164A43F020035364144B5B6C03F0200371
:1036B0003B613B690023FB60104B1B6B0F4A43F0DF
:1036C000040313630D4B1B6B03F00403FB60FB68E7
:1036D000C023FB6202233B6300237B630323BB63A2
:1036E0000823FB6307F12C0319460C4806F0DAF8AF
:1036F00000BF4037BD4680BD004C0040003802404E
:10370000000002400044004000480040000C02401D
:1037100040150020286002400014014000080240CB
:1037200080B586B004AF0346FB7164230293012386
:103730000193FB1D0093012307225021074807F046
:103740001FF80346002B02D0054812F053FB32202D
:1037500005F00EF900BF0837BD4680BDF403002018
:103760000C97010880B586B004AF2023FB71642359
:10377000029301230193FB1D009301233F2250215B
:10378000194806F0FDFF4FF4FA7005F0F1F8002338
:10379000BB716423029301230193BB1D009301239A
:1037A00000225021104807F0E5F812E00F4812F00F
:1037B00021FB4FF4FA7005F0DBF864230293012338
:1037C0000193BB1D0093012300225021064807F0FE
:1037D000D1F8BB79A02BE9D1322005F0C9F800BFA0
:1037E0000837BD4680BD00BFF403002038970108AC
:1037F00080B58AB004AF78600B46FB70FB7803F0AD
:103800000103002B69D04FF0FF330293062301938D
:1038100007F10C03009301232E225021B94807F031
:10382000A9F80346FB75FB7D002B04D0FB7D1946F0
:10383000B54812F077FA7B7B1BB21B021AB23B7BB6
:103840001BB213431BB21846FCF76CFE4FF000028C
:10385000AE4BFCF7FBFF02460B4610461946FDF740
:10386000C3F902467B68DA63FB7B1BB21B021AB208
:10387000BB7B1BB213431BB21846FCF753FE4FF041
:103880000002A24BFCF7E2FF02460B461046194627
:10389000FDF7AAF902467B681A647B7C1BB21B0207
:1038A0001AB23B7C1BB213431BB21846FCF73AFE1C
:1038B0004FF00002954BFCF7C9FF02460B4610463D
:1038C0001946FDF791F902467B685A6407F10C032B
:1038D00008220021184612F0AFFAFB7803F0020329
:1038E000002B6AD04FF0FF3302930823019307F1B6
:1038F0000C030093012320225021824807F03AF85C
:103900000346FB75FB7D002B04D0FB7D19468048E8
:1039100012F008FA7B7B1BB21B021AB23B7B1BB274
:1039200013431BB207EE903AB8EEE77ADFED796AFF
:10393000C7EE267A7B68C3ED127AFB7B1BB21B02B3
:103940001AB2BB7B1BB213431BB207EE903AB8EE20
:10395000E77ADFED706AC7EE267A7B68C3ED137AEB
:103960007B7C1BB21B021AB23B7C1BB213431BB203
:1039700007EE903AB8EEE77ADFED666AC7EE267A90
:103980007B68C3ED147AFB7C1BB21B021AB2BB7CB2
:103990001BB213431BB207EE903AB8EEE77ADFEDA5
:1039A0005D6AC7EE267A7B68C3ED157A07F10C03D2
:1039B00008220021184612F03FFAFB7803F00403B6
:1039C000002B69D04FF0FF3302930623019307F1D8
:1039D0000C0300930123282250214A4806F0CAFF15
:1039E0000346FB75FB7D002B04D0FB7D19464A483E
:1039F00012F098F97B7B1BB21B021AB23B7B1BB205
:103A000013431BB21846FCF78DFD4FF000023F4BED
:103A1000FCF71CFF02460B4610461946FDF7E4F87A
:103A200002467B681A63FB7B1BB21B021AB2BB7B8C
:103A30001BB213431BB21846FCF774FD4FF0000293
:103A4000324BFCF703FF02460B4610461946FDF7C2
:103A5000CBF802467B685A637B7C1BB21B021AB20E
:103A60003B7C1BB213431BB21846FCF75BFD4FF0C7
:103A70000002264BFCF7EAFE02460B4610461946AA
:103A8000FDF7B2F802467B689A6307F10C0308223F
:103A90000021184612F0D0F9FB7803F00803002B40
:103AA0007BD04FF0FF3302930623019307F10C0301
:103AB0000093012314225021124806F05BFF0346B5
:103AC000FB75FB7D002B04D0FB7D1946134812F0DB
:103AD00029F97B7B1BB21B021AB23B7B1BB213433F
:103AE0001BB21846FCF71EFD4FF000020C4BFCF712
:103AF000ADFE02460B4610461946FDF775F8024624
:103B000010E000BFF4030020549701080000594062
:103B1000749701080000804698970108B89701083B
:103B2000000030407B68DA60FB7B1BB21B021AB2DC
:103B3000BB7B1BB213431BB21846FCF7F3FC4FF0E0
:103B40000002B94BFCF782FE02460B4610461946AE
:103B5000FDF74AF802467B681A617B7C1BB21B02A8
:103B60001AB23B7C1BB213431BB21846FCF7DAFCBB
:103B70004FF00002AC4BFCF769FE02460B461046C4
:103B80001946FDF731F802467B685A6107F10C03CC
:103B900008220021184612F04FF9FB7803F01003B9
:103BA000002B69D04FF0FF3302930623019307F1F6
:103BB0000C0300930123082250219C4806F0DAFEF2
:103BC0000346FB75FB7D002B04D0FB7D194698480E
:103BD00012F0A8F87B7B1BB21B021AB23B7B1BB214
:103BE00013431BB21846FCF79DFC4FF00002914BAB
:103BF000FCF72CFE02460B4610461946FCF7F4FF74
:103C000002467B681A60FB7B1BB21B021AB2BB7BAD
:103C10001BB213431BB21846FCF784FC4FF00002A2
:103C2000844BFCF713FE02460B4610461946FCF780
:103C3000DBFF02467B685A607B7C1BB21B021AB218
:103C40003B7C1BB213431BB21846FCF76BFC4FF0D6
:103C50000002784BFCF7FAFD02460B461046194667
:103C6000FCF7C2FF02467B689A6007F10C0308224A
:103C70000021184612F0E0F8FB7803F02003002B37
:103C800069D04FF0FF3302930623019307F10C0331
:103C9000009301230E225021644806F06BFE034678
:103CA000FB75FB7D002B04D0FB7D1946624812F0AA
:103CB00039F87B7B1BB21B021AB23B7B1BB213434E
:103CC0001BB21846FCF72EFC4FF00002564BFCF7D7
:103CD000BDFD02460B4610461946FCF785FF02461D
:103CE0007B689A61FB7B1BB21B021AB2BB7B1BB2C7
:103CF00013431BB21846FCF715FC4FF000024A4B69
:103D0000FCF7A4FD02460B4610461946FCF76CFF73
:103D100002467B68DA617B7C1BB21B021AB23B7CD9
:103D20001BB213431BB21846FCF7FCFB4FF000021A
:103D30003D4BFCF78BFD02460B4610461946FCF73F
:103D400053FF02467B681A6207F10C030822002128
:103D5000184612F071F8FB7803F04003002B77D07F
:103D60004FF0FF3302930623019307F10C030093F6
:103D700001231A2250212D4806F0FCFD0346FB7555
:103D8000FB7D002B04D0FB7D19462C4811F0CAFFA7
:103D90007B7B1BB21B021AB23B7B1BB213431BB2D1
:103DA0001846FCF7BFFB4FF000021F4BFCF74EFD1F
:103DB00002460B4610461946FCF716FF02467B6882
:103DC0005A62FB7B1BB21B021AB2BB7B1BB21343B2
:103DD0001BB21846FCF7A6FB4FF00002124BFCF793
:103DE00035FD02460B4610461946FCF7FDFE02461D
:103DF0007B689A627B7C1BB21B021AB23B7C1BB2B3
:103E000013431BB21846FCF78DFB4FF00002064B24
:103E1000FCF71CFD02460B4610461946FCF7E4FE73
:103E200002467B680CE000BF00003040F403002035
:103E3000D897010800005940F89701081498010824
:103E4000DA6207F10C0308220021184611F0F4FF92
:103E500000BF1837BD4680BD80B588B004AF0346AB
:103E6000FB71FB79FB730020FFF75AFC642302937C
:103E70000123019307F10F03009301233D225021F9
:103E80000D4806F07DFC0346002B03D00B4811F0D3
:103E9000B1FF02E00A4811F0ADFFFB79002B03D11E
:103EA000322004F065FD02E0322004F061FD00BF25
:103EB0001037BD4680BD00BFF403002034980108D0
:103EC0005898010880B586B004AF0346FB7164239F
:103ED000029301230193FB1D009301233E225021F5
:103EE000094806F04DFC0346002B03D0074811F0AB
:103EF00081FF02E0064811F07DFF322004F038FD1A
:103F000000BF0837BD4680BDF40300207C9801083F
:103F10009C98010880B586B004AF03460A46FB7141
:103F20001346BB716423029301230193FB1D00938D
:103F30000123412250210C4806F022FC142004F0F9
:103F400017FD6423029301230193BB1D00930123FA
:103F500042225021044806F013FC642004F008FDBE
:103F600000BF0837BD4680BDF403002080B588B08F
:103F700004AF3B4683E80300FFF7F4FB0020FFF7A4
:103F80006BFF322004F0F4FC0023FB7364230293E4
:103F90000123019307F10F03009301233F225021D6
:103FA000174806F0EDFB642004F0E2FC7B78BA7859
:103FB00011461846FFF7AEFF642004F0D9FC6423D5
:103FC0000293012301933B46009301233B2250219E
:103FD0000B4806F0D5FB642004F0CAFCFB781846B9
:103FE000FFF770FF642004F0C3FC3B791846FFF72D
:103FF00033FF642004F0BCFC00BF1037BD4680BD19
:10400000F403002080B588B004AF78604FF0FF3330
:1040100002930123019307F10E030093012335223C
:1040200050211C4806F0A6FC0346FB73FB7B002BCB
:104030001BD1BB7B9B09DAB27B681A70BB7B1B0967
:10404000DBB203F00303DAB27B685A70BB7B9B08D8
:10405000DBB203F00303DAB27B689A70BB7B03F038
:104060000303DAB27B68DA700FE0FB7B19460A487B
:1040700011F058FE074806F023F80A2004F078FCF7
:10408000FDF722FA0A2004F073FC00BF1037BD468A
:1040900080BD00BFF4030020BC98010880B588B043
:1040A00004AF786000F0D2F80346FB730020FFF7FE
:1040B000D3FE0E4811F09EFE642302931623019353
:1040C0007B680093012355225021094806F052FCD9
:1040D000084811F08FFEFB7B1846FFF7BDFE06482F
:1040E00011F088FE00BF1037BD4680BDF49801086E
:1040F000F4030020109901082C99010880B588B0BC
:1041000004AF786000F0A2F80346FB730020FFF7CD
:10411000A3FE0E4811F06EFE642302931623019352
:104120007B680093012355225021094806F028FBA3
:10413000084811F05FFEFB7B1846FFF78DFE06482E
:1041400011F058FE00BF1037BD4680BDF49801083D
:10415000F4030020489901082C99010880B582B029
:1041600000AF00237B603B1D1846FFF74BFF00F0BC
:104170006DF80346013B092B52D801A252F823F0F7
:10418000A9410008B7410008C5410008D341000813
:10419000ED4100080742000821420008ED410008F7
:1041A000D3410008C5410008BB79032B0CBF012394
:1041B0000023DBB246E0FB79032B0CBF0123002375
:1041C000DBB23FE07B79032B0CBF01230023DBB282
:1041D00038E0BB79032B04D1FB79032B01D10123F8
:1041E00000E0002303F00103DBB22BE0BB79032BDB
:1041F00004D17B79032B01D1012300E0002303F0DC
:104200000103DBB21EE0FB79032B04D17B79032B86
:1042100001D1012300E0002303F00103DBB211E030
:104220003B79032B0AD17B79032B07D1BB79032B75
:1042300004D1FB79032B01D1012300E0002303F01B
:104240000103DBB218460837BD4680BD80B586B095
:1042500004AF6423029301230193FB1D0093012308
:104260003D225021034806F085FBFB7918460837AC
:10427000BD4680BDF403002080B584B002AF0023AA
:104280003B604E4811F0B6FD0C20FFF7E5FD6420C1
:1042900004F06EFB4A4811F0ADFD4A4811F0AAFD4A
:1042A0004FF47A7004F064FB3B461846FFF7AAFE11
:1042B0004FF4FA7004F05CFB7B78032BF4D1424896
:1042C00011F098FD414811F095FD414811F092FD23
:1042D00000237B600CE07B68013319463D4811F0F8
:1042E00021FD40F2DC5004F043FB7B6801337B602E
:1042F0007B68052BEFDD3B461846FFF783FE4FF446
:10430000FA7004F035FBBB78032BF4D1324811F07E
:1043100071FD324811F06EFD314811F06BFD4FF424
:104320007A7004F025FB3B461846FFF76BFE4FF40E
:10433000FA7004F01DFBFB78032BF4D1294811F02F
:1043400059FD294811F056FD284811F053FD3B4610
:104350001846FFF757FE4FF4FA7004F009FB3B785C
:10436000032BF4D14FF4FA7004F002FB03E04FF496
:10437000FA7004F0FDFAFFF7F1FE034683F0010343
:10438000DBB2002BF3D11A4811F034FD3B7819460B
:104390007B781A46BB781846FB780093034615488D
:1043A00011F0C0FCFFF7DAFE0346002B01D0012319
:1043B00000E0002318460837BD4680BD80990108FB
:1043C000A0990108BC990108EC9901080C9A010810
:1043D0002C9A0108609A0108709A0108949A0108C1
:1043E000B09A0108CC9A0108F09A0108089B0108CC
:1043F0004C9B0108689B010880B483B000AF034662
:104400000A46FB801346BB80FA88BB8813443F2BC7
:1044100001DCFB8803E0BB88C3F140039BB2184674
:104420000C37BD465DF8047B7047000080B58EB048
:1044300004AFBA601A460346FB810B46BB811346A4
:10444000FB800623FB61FB89FB84FA88BB8913444C
:10445000002B00DA3F339B119AB2FB8913447B8314
:104460007A8BFB8CD31A9BB201333B830023BB8432
:1044700000233B6234E0FA8CFB6902FA03F31AB2C0
:10448000B7F90C3013431BB2FB82BA89FB88114683
:104490001846FFF7B1FF0346BB82BB8CBA681344D2
:1044A000F98A4FF47A720292BA8A01920093022337
:1044B0000A46A0210F4806F063F9FB8C0133FB8408
:1044C0000023BB81FA88BB8AD31AFB80BA8CBB8AD3
:1044D0001344BB84052004F04BFA3B6A01333B6272
:1044E0003B8B3A6A9A42C6DB00BF00BF2837BD4605
:1044F00080BD00BFA003002080B58EB004AFBA60BD
:104500001A460346FB810B46BB811346FB800623FC
:10451000FB61FB89FB84FA88BB891344002B00DA1A
:104520003F339B119AB2FB8913447B837A8BFB8CBC
:10453000D31A9BB201333B830023BB8400233B622D
:1045400031E0FA8CFB6902FA03F31AB2B7F90C30C6
:1045500013431BB2FB82BA89FB8811461846FFF74A
:104560004BFF0346BB82BB8CBA681344F98A4FF4F5
:104570007A720292BA8A0192009302230A46A0211B
:104580000D4806F0F7F9FB8C0133FB840023BB8157
:10459000FA88BB8AD31AFB80BA8CBB8A1344BB84CB
:1045A0003B6A01333B623B8B3A6A9A42C9DB00BFEC
:1045B00000BF2837BD4680BDA003002080B588B06D
:1045C00004AF78600B46FB707B681868FB789AB282
:1045D0004FF47A7302930223019307F10C030093C3
:1045E0000123802106F0C6F93B7B1BB21B021AB2E5
:1045F0007B7B1BB213431BB29BB218461037BD46E0
:1046000080BD80B588B004AF78600B46FB70134660
:104610003B803B881B0A9BB2DBB23B733B88DBB21F
:104620007B737B681868FB789AB24FF47A730293B5
:104630000223019307F10C0300930123802106F06C
:104640009FF8034618461037BD4680BD80B584B03C
:1046500000AF786002217868FFF7B0FF0346FB8166
:10466000FB89DB089BB29B009BB218461037BD4606
:1046700080BD80B584B000AF786004217868FFF712
:104680009DFF0346FB81B7F90E3018461037BD4633
:1046900080BD000080B584B000AF78607868FFF717
:1046A000E8FF0346FB81B7F90E30054AB2F9002056
:1046B00093FBF2F31BB218461037BD4680BD00BF16
:1046C000A415002080B485B000AFF86087ED020A21
:1046D000C7ED010A1E4B1B78022B1BD0022B2ADCD4
:1046E000002B02D0012B04D025E0194B01221A70B7
:1046F00025E097ED017AD7ED027AB4EEE77AF1EE94
:1047000010FA03DD124B01221A7018E0104B02223E
:104710001A7014E097ED017AD7ED027AB4EEE77AD9
:10472000F1EE10FA03DD0A4B01221A7007E0084B84
:1047300002221A7003E0064B00221A7000BF044BDD
:104740001B7818461437BD465DF8047B704700BFE0
:10475000A015002080B582B000AF78604FF4004211
:1047600000217868FFF74DFF012004F001F900BF38
:104770000837BD4680BD80B582B000AF78600B467B
:104780007B807B881A4605217868FFF73AFF00BFD7
:104790000837BD4680BD80B582B000AF78600B465B
:1047A0007B807B881A4600217868FFF72AFF00BFCC
:1047B0000837BD4680BD000080B584B000AF78608A
:1047C00043F69F13FB810C4B4FF480521A800B4B26
:1047D0000A221A800A4B02221A80074B1B881946AC
:1047E0007868FFF7C8FFFB8919467868FFF7D3FFA1
:1047F00000BF1037BD4680BDA2150020A4150020C3
:10480000A615002080B586B000AFF860B9601346E9
:10481000FB711A4B00221A70FB68BA681A60FB68B9
:10482000FA791A71164B00221A80164B00221A8050
:10483000FB799BB25B0099B202230322B86806F0B1
:10484000CBFA0346FB75FB7D002B11D10E4B0022EA
:104850001A70F7EE000A9FED0D0AF868FFF732FFB5
:10486000F868FFF777FFF868FFF7A6FF012300E07D
:10487000002318461837BD4680BD00BFA115002093
:10488000A4150020A6150020A0150020000000009F
:1048900080B58AB000AF786039603B68032B03D9DC
:1048A0007B681B78242B01D0002367E03A682A211B
:1048B0007868FBF78DFCF861FB69002B06D0FB697B
:1048C0009A1C79683B680B449A4201D3002355E057
:1048D000002387F827307B6801333B6209E03B6A9D
:1048E0001A7897F82730534087F827303B6A01330E
:1048F0003B623A6AFB699A42F1D3FB6901331B7848
:10490000FB76FB7E01331F4A13441B7803F003033D
:10491000022B02D1FB7E203B00E0FB7E7B61FB692A
:1049200002331B78FB74FB7C0133164A13441B785B
:1049300003F00303022B02D1FB7C203B00E0FB7C55
:10494000FB607B69402B03DD7B69373B1A0102E08A
:104950007B69303B1A01FB68402B02DDFB68373B6B
:1049600001E0FB68303B1344BB60BB68DBB297F8E7
:1049700027209A420CBF01230023DBB218462837B8
:10498000BD4680BDD8A0010880B483B000AF786078
:10499000396002E03B68013B3B603B68002B0DD077
:1049A0003B68013B7A6813441B780D2BF2D03B68BF
:1049B000013B7A6813441B780A2BEBD07A683B687A
:1049C000134400221A703B6818460C37BD465DF848
:1049D000047B704780B586B000AFF8607B600B4603
:1049E0007B8113463B817A893B899A4201D37B893B
:1049F00015E03A897B89D31AFB823A8CFB8A934271
:104A000028BF1346BB827B89FA681344BA8A796847
:104A1000184611F0EBFA7A89BB8A13449BB2184608
:104A20001837BD4680BD80B586B002AFF8607B60A8
:104A30000B467B8113463B817868FBF719FC0346E4
:104A40009BB23A89798900937B68F868FFF7C2FFC7
:104A5000034618461037BD4680BD000080B58AB0B9
:104A600000AFF8607B600B467B8113463B8107F10A
:104A700010030F337B627B6A00221A707B68002B65
:104A8000B8BF5B423B62396A164BA3FB0123DA08CD
:104A900013469B0013445B00CA1AD3B27A6A013AE8
:104AA0007A623033DAB27B6A1A703B6A0D4AA2FB33
:104AB0000323DB083B623B6A002BE4D17B68002BBD
:104AC00005DA7B6A013B7B627B6A2D221A703A8988
:104AD00079897B6AF868FFF7A6FF034618462837EE
:104AE000BD4680BDCDCCCCCCF0B599B002AF7861DD
:104AF00087ED020B7B600B467B8213463B827B6813
:104B0000002B01DA00237B607B68092B01DD092380
:104B10007B6001231E464FF000024FF00003D7E9EF
:104B20000201FBF7DBFF0346002B01D100231E46E9
:104B3000F3B2BB63BB6B002B05D0BC68FB6883F092
:104B40000045C7E90245D7E90201FCF705F803462D
:104B50007B6501233B650023FB6408E03A6D134647
:104B60009B0013445B003B65FB6C0133FB64FA6CF8
:104B70007B689A42F2DB786DFBF7D4FC02460B4669
:104B8000D7E90201FBF780FB02460B4614461D469F
:104B9000386DFBF7B7FC02460B4620462946FBF76B
:104BA0002BFD02460B46104619464FF000024B4BB8
:104BB000FBF76CFB02460B46C7E90C23D7E90C0157
:104BC000FBF7F2FF0346BB64BA6C3B6D9A4206D317
:104BD000BA6C3B6DD31ABB647B6D01337B65BB6BD9
:104BE000002B07D03A8A798A3D4B7869FFF71BFF83
:104BF00003467B823A8A798A7B6D7869FFF72EFFBC
:104C000003467B827B68002B62DD3A8A798A354BCA
:104C10007869FFF708FF03467B827B687B6400238B
:104C20003B64BB6C002B23D01CE0B96C2E4BA3FB68
:104C30000123DA0813469B0013445B00CA1AD2B260
:104C40003B6C591C39643032D2B258333B4403F8C0
:104C5000402CBB6C244AA2FB0323DB08BB647B6CA7
:104C6000013B7B64BB6C002B02D03B6C092BDCDD71
:104C70000023FB6308E007F12402FB6B134430229E
:104C80001A70FB6B0133FB63FA6B7B6C9A42F2DBAD
:104C90007B6C9BB207F124003A8A798A0093034621
:104CA0007869FFF797FE03467B820CE007F1180254
:104CB0003B6C13443A8A798A012000907869FFF7A7
:104CC00089FE03467B823B6C5A1E3A64002BEDD171
:104CD0007B8A18465C37BD46F0BD00BF0000E03F50
:104CE000A09B0108A49B0108CDCCCCCC2DE9B043FE
:104CF0008AB000AF786039607B68002B03D07B6896
:104D00001B78002B04D14FF000024FF000034EE05F
:104D100078680FF077F987ED060B4FF00002294B0A
:104D2000D7E90601FBF792FD02460B4610461946ED
:104D3000FBF712FF03467B617869FBF7F3FB4FF04B
:104D40000002204BFBF758FC02460B46D7E9060150
:104D5000FBF79AFA02460B46C7E902237869FBF78C
:104D6000E1FB804689464FF00002174BD7E902016C
:104D7000FBF76CFD02460B4640464946FBF786FAB8
:104D800002460B46C7E908233B68002B0DD03B6861
:104D90001B78532B03D03B681B78732B05D13C6ADF
:104DA0007B6A83F00045C7E90845D7E9082343EC4F
:104DB000172BB0EE470AF0EE670A2837BD46BDE86C
:104DC000B08300BF0000594000004E402DE9B043C1
:104DD0008AB000AF786039607B68002B03D07B68B5
:104DE0001B78002B04D14FF000024FF000034EE07F
:104DF00078680FF007F987ED060B4FF00002294B9A
:104E0000D7E90601FBF722FD02460B46104619467C
:104E1000FBF7A2FE03467B617869FBF783FB4FF04B
:104E20000002204BFBF7E8FB02460B46D7E90601E0
:104E3000FBF72AFA02460B46C7E902237869FBF71B
:104E400071FB804689464FF00002174BD7E90201FB
:104E5000FBF7FCFC02460B4640464946FBF716FAB8
:104E600002460B46C7E908233B68002B0DD03B6880
:104E70001B78572B03D03B681B78772B05D13C6AF6
:104E80007B6A83F00045C7E90845D7E9082343EC6E
:104E9000172BB0EE470AF0EE670A2837BD46BDE88B
:104EA000B08300BF0000594000004E4080B588B07C
:104EB00000AFF860B9607A600023FB61FB68BB61FA
:104EC0002A21F86810F0C0FF78617B69002B19D0A7
:104ED0007B6900221A7015E0FB695A1CFA619B007D
:104EE000BA681344BA691A602C21B86910F0ACFF93
:104EF00038613B69002B11D03B6900221A703B6975
:104F00000133BB61FA697B689A4208DABB69002BFE
:104F100005D0BB691B78002BDED100E000BF7B69A8
:104F2000002B02D07B692A221A70FB6918462037B1
:104F3000BD4680BD80B582B000AF78606822002198
:104F4000786810F079FF7B680022DA637B680022C2
:104F50001A6479684FF000024FF00003C1E9122390
:104F600079684FF000024FF00003C1E9142300BF3D
:104F70000837BD4680BD000080B5B2B000AF786094
:104F800039607868FBF774F9C7F8C400D7F8C43003
:104F9000002B00F04B827B681B78242B40F046826C
:104FA000D7F8C4107868FFF773FC034683F0010359
:104FB000DBB2002B40F03A820622AB49786810F051
:104FC00050FF0346002B07D00622A849786810F04E
:104FD00048FF0346002B01D1012300E00023C7F85E
:104FE000C0300622A249786810F03BFF0346002B30
:104FF00007D006229F49786810F033FF0346002B44
:1050000001D1012300E00023C7F8BC3006229A49F1
:10501000786810F026FF0346002B07D00622974938
:10502000786810F01EFF0346002B01D1012300E039
:105030000023C7F8B8302C21786810F005FFC7F8B6
:10504000B400D7F8B430002B00F0F28107F1080368
:1050500050220021184610F0EFFED7F8B43001338B
:1050600007F1080114221846FFF720FFC7F8B00027
:10507000D7F8C030002B00F0B580D7F8B030002B47
:1050800001DDBB6800E00023BB67D7F8B030012B1F
:1050900001DDFB6800E000237B67D7F8B030022B0E
:1050A00001DD3B6900E000233B67D7F8B030032BFC
:1050B00001DD7B6900E00023FB66D7F8B030042BEC
:1050C00001DDBB6900E00023BB66D7F8B030052BDB
:1050D00001DDFB6900E000237B66D7F8B030062BCA
:1050E00001DD3B6A00E000233B66D7F8B030072BB8
:1050F00001DD7B6A00E00023FB65D7F8B030082BA8
:1051000001DDBB6A00E00023BB657B6F002B0AD08A
:105110007B6F1B78412B03D07B6F1B78612B02D1F7
:105120003B6801221A70BB6F002B0ED0BB6F1B783F
:10513000002B0AD03B682F330A22B96F184610F0B3
:10514000A2FE3B68002283F83920BB6D002B0ED0F5
:10515000BB6D1B78002B0AD03B6828330622B96D43
:10516000184610F090FE3B68002283F82E20F96E5E
:10517000386FFFF7BBFDB0EE407AF0EE607A3B6827
:1051800083ED027B796EB86EFFF720FEB0EE407AB9
:10519000F0EE607A3B6883ED047B3B6E002B0DD014
:1051A0003B6E1B78002B09D0386E0EF02BFFB0EE53
:1051B000407AF0EE607A3B6883ED067BFB6D002B56
:1051C00000F03881FB6D1B78002B00F03381F86D07
:1051D0000EF018FFB0EE407AF0EE607A3B6883ED97
:1051E000087B27E1D7F8BC30002B00F0CF80D7F840
:1051F000B030002B01DDBB6800E00023C7F8A03011
:10520000D7F8B030012B01DDFB6800E00023C7F8C0
:105210009C30D7F8B030022B01DD3B6900E0002361
:10522000C7F89830D7F8B030032B01DD7B6900E078
:105230000023C7F89430D7F8B030042B01DDBB69E8
:1052400000E00023C7F89030D7F8B030052B01DD1F
:10525000FB6900E00023C7F88C30D7F8B030062B8C
:105260000EDD3B6A0DE000BFA89B0108B09B010862
:10527000B89B0108C09B0108C89B0108D09B01088E
:105280000023C7F88830D7F8B030072B01DD7B6AE0
:1052900000E00023C7F88430D7F8B030082B01DDD8
:1052A000BB6A00E00023C7F88030D7F8B030092B84
:1052B00001DDFB6A00E00023FB67D7F89810D7F800
:1052C0009C00FFF713FDB0EE407AF0EE607A3B6889
:1052D00083ED027BD7F89010D7F89400FFF776FDA6
:1052E000B0EE407AF0EE607A3B6883ED047BD7F84D
:1052F0008C30002B0BD0D7F88C301B78002B06D0CD
:10530000D7F88C000EF081FE02463B68DA63D7F8CE
:105310008830002B0BD0D7F888301B78002B06D0B4
:10532000D7F888000EF071FE02463B681A64D7F881
:105330008430002B0FD0D7F884301B78002B0AD094
:10534000D7F884000EF05EFEB0EE407AF0EE607AA0
:105350003B6883ED127BD7F88030002B6CD0FB6F5D
:10536000002B69D0FB6F1B784D2B03D0FB6F1B7894
:105370006D2B61D1D7F880000EF044FEB0EE407A7C
:10538000F0EE607A3B6883ED147B55E0D7F8B830D7
:10539000002B54D0D7F8B030012B01DDFB6800E0C2
:1053A0000023C7F8AC30D7F8B030022B01DD3B69E1
:1053B00000E00023C7F8A830D7F8B030032B01DD98
:1053C0007B6900E00023C7F8A430D7F8AC30002B8D
:1053D0000BD0D7F8AC301B78002B06D0D7F8AC0038
:1053E0000EF013FE02463B689A65D7F8A830002BF2
:1053F0000BD0D7F8A8301B78002B06D0D7F8A80020
:105400000EF003FE02463B68DA65D7F8A430002BA5
:1054100014D0D7F8A4301B78002B0FD0D7F8A400F5
:105420000EF0F3FD02463B681A6607E000BF06E097
:1054300000BF04E000BF02E000BF00E000BFC837CB
:10544000BD4680BD80B596B002AFF8600B467A606D
:105450007B817B891F2B01D800231EE207F13003DB
:1054600000221A605A60C3F8072007F120030022C7
:105470001A605A609A601A737B681B6E002B17DDE6
:105480007B68DB6D002B13DD7B689B6D002B0FDDD4
:105490007B68196E7B68DB6D7A68926D07F130006E
:1054A000019200930B465B4A0B210FF015FC3FE085
:1054B0007B6893F82830002B3AD07B6893F828302B
:1054C000A3F1300213469B0013445B001A467B682D
:1054D00093F82930303B1344FB647B6893F82A30FF
:1054E000A3F1300213469B0013445B001A467B680D
:1054F00093F82B30303B1344BB647B6893F82C301B
:10550000A3F1300213469B0013445B001A467B68EC
:1055100093F82D30303B13447B6407F13000FB6C73
:105520000193BB6C00937B6C3B4A0B210FF0D4FBC7
:105530007B6893F82F30002B50D007F11C0300211B
:105540000A461A800A469A7007F1180300210A4693
:105550001A800A469A7007F1100300221A60C3F8F5
:1055600003207B682F331846FAF782FE38643B6CC1
:10557000052B33D97B6893F82F303B777B6893F802
:1055800030307B777B6893F831303B767B6893F8DB
:1055900032307B767B6893F833303B747B6893F8CA
:1055A00034307B743B6C062B09D97B6803F13501E1
:1055B00007F1100302330422184610F064FC07F1CF
:1055C0001C0207F1200007F11003019307F11803F3
:1055D00000931346114A0D210FF07EFB0023FB8739
:1055E0007A89F98F0E4BF868FFF71DFA0346FB879F
:1055F0007A89F98F0B4BF868FFF715FA0346FB879A
:105600007B681B78002B11D07B68DB6B002B0DDDDA
:10561000054B0CE0D89B0108E89B0108FC9B0108A6
:10562000089C01080C9C0108189C01089D4B7A8974
:10563000F98FF868FFF7F7F90346FB877A89F98F46
:10564000994BF868FFF7EFF90346FB877A89F98FE2
:10565000964BF868FFF7E7F90346FB877B68DB6B3F
:105660007A89F98FF868FFF7F9F90346FB877A8999
:10567000F98F8D4BF868FFF7D6F90346FB877A89D7
:10568000F98F8B4BF868FFF7CEF90346FB877B68F1
:1056900093ED027B7A89F98F0823B0EE470AF0EE8A
:1056A000670AF868FFF720FA0346FB877A89F98FC3
:1056B0007D4BF868FFF7B7F90346FB877A89F98FC6
:1056C0007C4BF868FFF7AFF90346FB877B6893EDE7
:1056D000047B7A89F98F0823B0EE470AF0EE670A57
:1056E000F868FFF701FA0346FB877A89F98F6E4B5A
:1056F000F868FFF798F90346FB877A89F98F6E4BB4
:10570000F868FFF790F90346FB877B681B6C7A8982
:10571000F98FF868FFF7A2F90346FB877A89F98FBA
:10572000614BF868FFF77FF90346FB877A89F98FA9
:10573000624BF868FFF777F90346FB877B6893EDC8
:10574000127B7A89F98F0223B0EE470AF0EE670ADE
:10575000F868FFF7C9F90346FB877A89F98F524B3E
:10576000F868FFF760F90346FB877A89F98F544B95
:10577000F868FFF758F90346FB877B6893ED147BC5
:105780007A89F98F0223B0EE470AF0EE670AF868CB
:10579000FFF7AAF90346FB877A89F98F424BF8682D
:1057A000FFF741F90346FB877A89F98F454BF86883
:1057B000FFF739F90346FB877B6893ED067B7A890F
:1057C000F98F0223B0EE470AF0EE670AF868FFF798
:1057D0008BF90346FB877A89F98F334BF868FFF71B
:1057E00022F90346FB877A89F98F374BF868FFF770
:1057F0001AF90346FB877B6893ED087B7A89F98F5A
:105800000223B0EE470AF0EE670AF868FFF76CF97A
:105810000346FB877A89F98F234BF868FFF703F972
:105820000346FB877A89F98F284BF868FFF7FBF866
:105830000346FB8707F130037A89F98FF868FFF791
:10584000F2F80346FB877A89F98F214BF868FFF756
:10585000EAF80346FB877A89F98F1E4BF868FFF751
:10586000E2F80346FB8707F120037A89F98FF8688D
:10587000FFF7D9F80346FB877A89F98F164BF8684A
:10588000FFF7D1F80346FB877A89F98F134BF86845
:10589000FFF7C9F80346FB87FB8F18465037BD4614
:1058A00080BD00BF209C0108289C01082C9C010899
:1058B000349C01083C9C0108449C01084C9C010854
:1058C000549C0108609C01086C9C01087C9C0108A8
:1058D000889C01088C9C0108989C01089C9C0108EC
:1058E00080B5ADF5267D00AF07F52673A3F52573CA
:1058F000186007F52673A3F52673196007F526735C
:10590000A3F525731B6893F80434DBB2012B05D192
:1059100007F52673A3F525731B6806E007F52673C4
:10592000A3F525731B6803F20223C7F88C3207F531
:105930002673A3F525731B6893F80434DBB2012B9F
:1059400007D107F52673A3F525731B6803F50073CC
:1059500006E007F52673A3F525731B6803F20243DF
:10596000C7F88832D7F888321B88A7F89632B7F87C
:105970009632B3F5007F03D340F2FF13A7F89632B7
:10598000B7F8962207F17403D7F88C12184610F076
:105990002DFBB7F8963207F52672A2F509720021A1
:1059A000D15407F108031846FFF7C4FA07F174034E
:1059B000C7F8903269E0D7F89032C7F8803245498D
:1059C000D7F8900210F072FAC7F87C02D7F87C3250
:1059D000002B05D0D7F87C22D7F89032D31A04E0F8
:1059E000D7F89002FAF744FC0346C7F87832D7F8A4
:1059F0009022D7F8783213441B7887F87732D7F89B
:105A00009022D7F87832134400221A70D7F878120F
:105A1000D7F88002FEF7B8FFC7F87802D7F87832D7
:105A2000002B0BD0D7F880321B78242B06D107F13E
:105A300008031946D7F88002FFF79EFAD7F890229C
:105A4000D7F87832134497F877221A70D7F87C3257
:105A5000002B03D0D7F87C32013304E0D7F8902232
:105A6000D7F878321344C7F8903204E0D7F8903270
:105A70000133C7F89032D7F890321B780D2BF5D050
:105A8000D7F890321B780A2BF0D0D7F890321B78D9
:105A9000002B90D107F108031A464FF40071D7F894
:105AA0008C02FFF7CFFC0346A7F88632D7F888327E
:105AB000B7F886221A8007F52673A3F526731B68AC
:105AC000B7F886221A80D7F88C32184607F5267761
:105AD000BD4680BDA09C010880B582B000AF786053
